:020000041000EA
:4000000000400208230100100D00000085010010000000000000000000000000000000000000000000000000000000008101001000000000000000008101001081010010E9
:400040008101001081010010810100108101001081010010810100108101001081010010810100108101001081010010810100108101001081010010810100108101001060
:400080008101001081010010810100108101001081010010810100108101001081010010810100108101001081010010810100108101001081010010810100108101001020
:4000C00010B5064C2378002B07D1054B002B02D0044800E000BF0123237010BD3C0600080000000090220010084B10B5002B03D00749084800E000BF07480368002B00D178
:4001000010BD064B002BFBD09847F9E7000000004006000890220010E8000008000000007047FFF7FDFF72B60F4C104DAC4209DA21686268A368043B02DBC858D050FAE7F7
:400140000C34F3E70A490B4A0020521A02DD043A8850FCDC084809490860BFF34F8F00F005F900F01DF8FEE794220010AC2200103C060008140800080000000808ED00E003
:40018000FEE7FEE700B504207146084202D0EFF3098001E0EFF30880043001F001FCFEE710B562B6014800F067F9FEE70000081010B5002000F0DAFE10BDC04670B5624949
:4001C000E0239B00CB580F2213401A00D0329200525807210A40032A05D0042A06D0002A12D15A4814E05A4A106811E01A00C0329200554952581F210A40112A06D0132A7C
:4002000004D0FA20C00103E0524801E080200002002B36D14C4BB222D2009A5801211140B125ED005A59120F032422405B591B0F1C4207D0444C63591B0F03242340012BDC
:4002400002D102E0012300E00023002B01D0002901D1032A4BD13C4BB022D2009D58AD03AD0B3D495958C904C90C9C58240E01231C40013401F0D6FC6843210001F0D2FCD8
:4002800035E0012B33D1304BC822D2009A5801251540C024E4001A59120F03210A401B591B0F194207D028490B591B0F03210B40012B02D102E0012300E00023002B01D049
:4002C000002D01D1032A12D11F4DC022D200AB587F210B40A958090A1F263140AC58240C3440584301F09EFC210001F09BFCE0239B00154AD3581B0903221340D840144C64
:400300006060164B1D692D0AFC32154001351969090E013101F086FCA060290001F082FC0500E06020610E4BC0180E4901F07AFC20750D4BE818FA21890001F073FCA061A9
:40034000C003E06170BDC0460000264000127A00C000000800366E0184050000000021403F420F0040420F00E703000010B5284801F052FC274CB022D200A3585B005B08AE
:40038000A350E0218900635830208343635080235B04A350204A214BE250A02292010433E250FF221E4BE25000F050FFC0225200A35801218B43A35000F094F9FFF7FEFE05
:4003C000B0235B055B78002B04D0B0235B055B78DBB200E02123212B03D1124B0022DA605A60114C22008021042000F065FB2000103000F0F9FB0D4B1A685123D35C002B2E
:4004000002D00B4800F066FC00F0E0FF10BDC046D82100100000264001000200840500008C050000E000234058060008100800088C1D00108023024AD35803201840704749
:400440000000214010B501F03CFB084980228C58074B2340074C23438B508823034AD358DB06FAD501F031FB10BDC04600002140FCFF00000100FA0570B50500830504D069
:40048000E821FF310F4801F05DFA01F01AFB0400FFF7D0FF032801D1FFF7D4FF0A4AB0239B00D55080215058084B03400848034353508823044AD358DB06FAD5200001F0EB
:4004C00004FB70BDC01D001000002140FCFF00000300FA05FEE7C046014A024B1A60704701001180000E1F4130B587B06E49A022D2008B58032083438B506C4A1168086824
:400500008823CB58C31818686949084018601368186884241B59C01803681B021B0A80256D042B430360106805680359EB1818680140196013683E229A5C002A06D05A48AC
:40054000E02189004258753CA24342503E229A5C002A06D05448E021890042583024A24342503E229B5C002B07D04F49E02292008B588020000603438B500021012000F0ED
:400580000DFD0021022000F009FD0021032000F005FD0021042000F001FD0021002000F0FDFC01A8434903000A0032CA32C312CA12C300F021FD002802D00420FFF78AFFD6
:4005C00039493D4A8B588020000603438B503B4800F0CEFD002802D00420FFF77BFF324C374BE158374A0A40E250E158364A0A40E250E25880252D062A43E250043BE158E8
:40060000324A0A40E250E158314A0A40802189010A43E250E258802109020A43E2502D4A11682D4B0B40802149000B431360002001F0BAFA294BE2581543E550E1580122FB
:4006400091430A43E2506421002001F0C1F9174B1B683F229A5C372A03D90021204A986881509A6874215B5AD2181168104B0B40C621C9010B4313600C4B1A687323D15C9F
:40068000703B8B4019007023D35C7220105C83400B43802109060B438021C9009068435093685B5807B030BD0000264010080008FF00FFFFD81D0010087F0000400D030036
:4006C00004050000FEFCFFFFFFFF00FFFFF0FFFFFF8FFFFF00002740FFFCFFFF0C050000DC0C000030B58BB09621002001F070F901F046F9002814D101F032F9C0235B0042
:400700002A4AD358DB0705D41100294A8B585B005B088B502549264A8B588020000603438B50012001F09AF8224A516C224B0B40E82189010B435364536C1B0AFF22134062
:400740003A2B07D11B4A516C1C4B0B40E82189010B4353640023002219491A4801F0B8F9012300228021C905322001F0B1F9FFF7BBFE01AC2200144B143323CB23C223CB9E
:4007800023C223CB23C22100104800F027FE24220021200001F0D2FA4023019321000C4800F01CFEFFF798FE0BB030BD000026400C05000000002740FF00FFFFFFC5FFDF88
:4007C000070E0040160E0000D81D0010000332408004324070B505000C001A4B1B6828229A5C012A15D1820807211000884327D19200AD1AED00FF20A8401B6820339A1847
:400800001168AC4023004B40184004004C40146016E03A229B5EDBB2994203D176210A4801F090F8074B1B681B68072215408022120615438022920194466444A400E550E8
:4008400070BDC04610080008101E001070B504000D000B4B9A680B4B9A420CD1002904D13821FF31084801F06DF81034054BA400E058E55003E01034A400044BE05870BDF9
:4008800000ED00E000000008101E001000000010F0B5474680B482B0061E01914AD04368032B03D93221264801F04CF80023F05E002804DBB178FFF78DFF002400E0214C6E
:4008C0000023F15E7368002912DB88081E4FC0308000C55903221140C900FC3290468A4095439A01434613408B402B43C35116E089B20F220A40083A9208063292001348B4
:400900001018476803221140C900FF252A008A4097439A012B0013408B403B4343600B4B9A680B4B9A4206D10023F05E0199FFF78DFF00E0034C200002B004BC9046F0BD78
:40094000101E00100100560000E100E000ED00E00000000870B504000D000A4B1A68B423D3581B181B68002B0ADA0B0C03D00649064800F0E7FF2D042D0C6560002000E0EC
:40098000034870BD10080008D5020000541E001001008A0070B505000C000368002B01DA002300E0084B002B0BD1EA60230C03D00649074800F0C6FF2404240CAC60002094
:4009C00000E0014870BDC04601008A00BB020000541E001070B505000C1E03D19921084800F0B0FF074B1A68B423D3585B191B68002B03DAEB682360002000E0024870BDDE
:400A0000941E00101008000801008A0070B504000D00234B1A683123D35C834236D9002936D00B68DB0635D13123D35C984204D3C421FF311B4800F085FF194B1B681A6AB8
:400A4000B0215B5A5C431419174E34602B68DA080021686801F072F900212000FFF77AFF3468002D03D111490E4800F06BFF2A0000212000FFF78EFF00280DD10A4B186849
:400A80000021FFF767FF002808D108E0084806E0074804E0064802E0064800E0054870BD10080008541E0010E80700089303000003018A0001018A0010B50400002A17D16B
:400AC000002915D1124B1A683123D35C984204D3C421FF310F4800F035FF0D4B1B681A6AB0215B5A5C4314190B4B1C6000200EE0002A09D0002909D0074B59609A60191D73
:400B00002000FFF783FF02E0044800E0034810BD10080008541E0010E807000803018A00F0B583B00D001C4B1B68DC68236883422DD947097B01C01A012383401E00002993
:400B400003D100F0BEFF019001E000230193124B18680368002B01DA002300E00F4B002B0ED16368BF00DF193B68334203D0B3433B60002400E00A4C0021FFF7EBFE00E0DE
:400B8000084C002D04D1019800F09FFF00E0064C200003B0F0BDC046E807000801008A00020188000301880004018A000A4B1B68DA68136883420BD943095901401A012178
:400BC000814052689B009B580B4203D0034802E0034800E003487047E80700080101880004018A0000018800034B1B68002B01D1014B18607047C046F4070008F0B5474655
:400C000080B404000F0090461E002D4B1B68002B03D1B5212B4800F095FE294B1B682C2060431C18FF22150035402560330A13406360360CA660244B1A683123D35C9D427B
:400C400004D3C421FF31214800F07CFE1E4B1A68B023D35A6B43116A8C466344236166683223D35C9E4204D3E021FF31174800F069FE154B1B681D6A80367601AD19656191
:400C8000A668330C04D0FF214900104800F05AFE330C03D00E490D4800F054FE3604330C1E43AE604346E36127620023A361069B002B02D000229B5EA38104BC9046F0BD85
:400CC000F4070008D41E001010080008541E0010FF010000F0B58FB0041E03D15221294800F030FE6368032B03D95421254800F029FEE36A002B03D15821224800F022FE64
:400D0000236B002B03D159211E4800F01BFE07AA1300210061C961C321C921C302AD290023001433C1CBC1C141CB41C10821535E0CAE3380144B1B6836215B5E07998C4633
:400D40006344B370089B0D930B9B0A980096A26AE16AFFF753FF2B69E868002200920021FFF74CFF216B3000FFF792FD0023F25E002A05DB1F231A401E3B9340034A1360A9
:400D80000FB0F0BDD41E00101008000800E100E0F8B505000F0016001C00002A03D1FD21224800F0CFFD224B1B68002B03D1FE211E4800F0C7FD1E4B1B682C21280048439B
:400DC000181879435918012213004D68AB401B044568AA4015000269002A20D08F69002F1FD11268002A01DA002200E0114A002A19D132681204120C134333600369DE6008
:400E000001238B614C6204692B0C03D00A490B4800F098FD2A04120CA260002004E0084802E0084800E00748F8BDC046D41E0010F407000801008A00BB020000541E0010C5
:400E400004028A0007028A0070B504000D0016000F4B1B68002B04D1AF2149000D4800F071FD0B4B1B682C2060431C18236A002B04D1B1214900074800F064FDE369B342D5
:400E800004D9236AB6009D51002000E0024870BDF4070008D41E00100A028A0070B582B0040000230193002804D1D221FF312D4800F048FD2369002B04D1E92149002948E6
:400EC00000F040FD6369002B04D1D421FF31254800F038FD236A002B04D1EA214900214800F030FD6269D5682B0C24D01B041360136820691C4B1A68B423D358C3181B68C9
:400F0000002B18DA01A9FFF765FD00280ED1019803681E0CFF221340E269934207D29B00226AD358002B02D0984700E0002631002069FFF70FFD2D042D0C0FD063691D606E
:400F40001B68636A002B03D098470023636203E0A36A002B00D098470023A36163691B6802B070BDD41E00101008000810B50400084B1B68002B04D1B221FF31064800F03B
:400F8000E1FC044B1B682C2060431818FFF786FF10BDC046F4070008D41E0010134B1A683C23D35C83421DD9042904D94B1EFF3B9BB2132B18D8FF290CD91F2319400C4AC1
:400FC0000300C0339B009950D03080000423835000200AE007231940D0308000044BC150002002E0034800E002487047100800080000264001004A0070B5041E03D14A49E3
:401000004A4800F09FFCB023DB00494AD358002B00DA87E0474B22689A4203D94649434800F090FC23689B039B0BE279002A02D08022520400E000221343B022D2003C49B2
:401040008B50A2883D4B9A4204D98C218900374800F078FC22893A4B9A4203D93949334800F070FCA388DB04D90C23891B04364A13400B43354A2E498B50A37A0F2B04D9F0
:401080008E218900294800F05DFCE37A0F2B03D92F49264800F056FCA289284B9A4203D92C49224800F04EFCA37A0F211940E27A1201FF2313400B43A289120226490A4064
:4010C0001343A27B1207C02189050A401343B122D20017498B50A379042B03D91F49134800F030FC228A164B9A4204D9912189000E4800F027FC0E4819494558194B1D40EF
:40110000A3791B02E022D20013402B4343504558154B1D40238A1B040B4A13402B434350002000E0114870BD1F020000141F001000002640FFFF030029020000FF1F0000E5
:40114000FF010000310200000000FF0184050000390200003A02000000FF1F00430200008C050000FFF8FFFFFFFF00FE03004A0070B505003149324A8B588020000603431B
:401180008B502C0003E0012000F0D0FB013CB223DB002A4AD3585B0701D4002CF3D12749B122D2008858274B03408020800503438B50002D01D0002C0CD02049B022D200B3
:4011C0008B588020000603438B5003E0012000F0ADFB013CB223DB00184AD358DB0701D4002CF3D1002D01D0002C08D01349B122D2008B58C020800503438B5013E00F4BCF
:40120000B121C90058580F4A02408020800502435A5008395A58520052085A5008495A58520052085A50002D03D0002C03D0002002E0002000E0044870BDC046000026402C
:401240008C050000FFFFFFCF02004A000749C02252008B589B009B088020C00503438B508B588020000603438B50704700002640214B984230D00ED8402831D004D800283A
:401280001FD010282AD031E080282BD080235B00984229D02AE0194B984229D007D8A0231B0698420DD0164B984212D01EE0154B98420AD0144B984209D0144B984215D16D
:4012C00001E0002016E0124814E0124812E0124810E0A020C0030DE007480BE00F4809E00F4807E00F4805E0034803E00E4801E0A420C0037047C04606005200010000F0BD
:40130000090000A0040000F0050000F0030000F0010052000200520003005200010050000200500005005200FF00520070B5124B1A683123D35C002B04D1C421FF310F48EE
:4013400000F000FB0C4B1D682C00B423EB582A6A944663441B68002B0BDB094B1868FFF787FF6B6801229A6063689B68002BFBD100E0044870BDC046100800089C1F001068
:40138000F80700080200500010B50D4B1861002805D002230370FD33437000234380094B1B6850229A5C002A08D051229B5C002B04D04F3A04490020FFF746FD10BDC04634
:4013C000F8070008100800086101000810B502481430FFF7D9FF10BDF807000870B505000C0000285DD000295DD0FF230A689A4303D099212D4800F0A5FAFF2322699A43FA
:4014000003D09A21294800F09DFAA3685B0D03D09B21264800F096FA63685B0A03D09C21224800F08FFAE3695B0F03D09D211F4800F088FA236A5B0F03D09E211B4800F097
:4014400081FA1B4A11688B69EB1ADB0949691B01CB18216829607D211068415C6918E06808607E211068415C6918206908607F211068415C6918606908607C211068415C50
:401480006918A06808606168A961116880228A5CAD18A2692A60E2691A60226A5A60002002E0044800E0034870BDC046DC1F00101008000801005A0010B5B0235B059B89B4
:4014C0009BB2002B04D0B0235B059B899BB201E080235B0080225200934215D1184C23681968683A9B58C9180B680F208343963A13430B6021680C689C23CB58E318196834
:4015000081430A431A6019E00D4C2368196898229B58C918B02040050A4BC2580A4B13400A681343C022920013430B60226811689C23D358CB18054A82581A6010BDC046C5
:401540001008000848180000FFFCFFFF4418000030B5B0235B059B899BB2002B04D0B0235B059B899BB201E080235B0080225200934215D1184C23681968683A9B58C918F6
:401580000B680F208343953A13430B6021680C689C23CB58E318196881430A431A6019E00D4D2B68196898229B58C918B0246405C12040012258094B13400A681343C0222E
:4015C000920013430B602A6811689C23D358CB1822581A6030BDC04610080008FFFCFFFFB0235B059B899BB2002B04D0B0235B059B899BB201E080235B00802252009342D1
:401600000DD1104B1B681A6898215B58D21811680D4B0B40C021C9010B43136011E0094B1B68196898229B58C918084BB0225205D258074B13400A681343C02292001343DA
:401640000B60704710080008FF8FFFFF18180000FFFCFFFF30B5B0235B059B899BB2002B04D0B0235B059B899BB201E080235B008022520093420DD1134B1B681A689821A5
:401680005B58D2181168114B0B408021C9010B43136018E00C4D2B68196898229B58C918B02464050A4822580A4B13400A681343C022920013430B602A6811689C23D358AB
:4016C000CB1822581A6030BD10080008FF8FFFFF4C180000FFFCFFFF10B5B0235B059B899BB2002B04D0B0235B059B899BB201E080235B0080225200934217D1002000F071
:4017000071FAB0235B055B78002B04D0B0235B055B78DBB200E02123222B03D8002803D1013004E0012002E0002000E0012010BDF8B50700012803D93D493E4800F002F9A8
:40174000B0235B055B78002B04D0B0235B055B78DBB200E021239DB2B0235B059B899BB2002B04D0B0235B059E89B6B201E080267600002000F036FA002814D180235B00B1
:401780009E4212D1222D12D82B4B1B685C682B4821582B4B19403B068022520413400B432350002404E0274C02E0264C00E0254C80235B009E4201D1222D03D880235B0070
:4017C0009E4232D01C4B1A683123D35C002B04D1C421FF311C4800F0B5F8174B1B681D6A80235B009E4203D1002F05D0174A06E0002F03D0164A02E0164A00E0164A012116
:401800002800FFF7C7F800280FD10B4B1A68B423D3585B191B68002BF7DBEB681B0E1B06A0221206934200D100242000F8BDC0464C0A00005C2000101008000818F00000CF
:40184000FFFFFFFE040042009C1F0010010100300300000C010000300100000CF8B50500012804D982210901294800F06BF8FFF733FF002849D000F024F90700002D11D128
:401880000021244B244AD150E823DB00B0225205D65CF6B20120FFF74BFF041E19D1FFF70BFE16E0B02252051C4BD0581A4B194958501B49565CF6B21A481A581F218A43F8
:4018C00014390A431A50032000F030F8FFF7C2FE0024002C15D11049124A8B581F20834306401E438E50002D02D1FFF779FE08E0072000F01BF8FFF72BFE0020FFF718FFD0
:401900000400380000F0E1F800E0074C2000F8BD5C200010307F00000000264010180000410700001CFF00000300420010B5034B1B78584300F0BCF810BDC046D400000895
:4019400001BEFEE770B50D00044C18220100200000F0FCF9A5610020FFF7F2FF00060008054B802212069A649B6C002B01DB002000E002487047C046000027400300460019
:40198000054B8022120198585B68FF221A4202D08023DB021843704700002640FEE7C04610B50A4B0268DA6142681A6282685A62C2689A620269DA6242691A6382695A6315
:4019C000C2699A63FFF7EAFF10BDC04600060008F0B5474680B4002801D0192300E064238B429B415B42304D2C682268A826A45BA41822680327BA433B401A4322602C68F4
:401A00002268A45BA2181668284CA046264016602C682668AA229446A25A96193268BA43134333602A6813686546525BD3181A68444614401C60002805D010291BD921291C
:401A40001BD8012024E0184B1B6855229A5C914215D956229A5C914213D957229A5C914211D958229A5C91420FD959229B5C99420DD804200CE000200AE0022008E0002040
:401A800006E0012004E0022002E0032000E00520054A1268526813680F218B430343136004BC9046F0BDC04610080008FFFCFFFF0230800803D001300238FCD1C046C04627
:401AC0007047EFF3108072B6704780F310887047F0B54F464646C0B483B006000D0000921F00012B03D95B212B48FFF72BFF330B03D05C212848FFF725FF284B1A686E2336
:401B0000D35A9B08013B264A13432A009A4301D16B0003D45D212048FFF714FF32006A40F0231B011A40141E2FD1FFF7CAFF01901A4B18686C23C15A83689C4661446E2350
:401B4000C35A9A08013A2A40920090466A22825A15402D0A5D432A00424455182A68920A9202FF231E40009B002B01D00134FF3426437F0280239B001F403E4316432E60B8
:401B80000198FFF7A2FF002000E0064803B00CBC90469946F0BDC0469C20001010080008000F00400100CE00042805D10B4A116804230B4313600FE0094B1A681168A02301
:401BC000D358CB180006C022920410401860034A136804218B4313607047C04610E000E01008000810B50400094B1B689B6CC340DB0703D4BE210748FFF7A4FE044B1B68BB
:401C00001B691034A402E3580F20184010BDC04610080008E0200010014B18607047C04610080008002243088B4274D303098B425FD3030A8B4244D3030B8B4228D3030C6E
:401C40008B420DD3FF22090212BA030C8B4202D31212090265D0030B8B4219D300E0090AC30B8B4201D3CB03C01A5241830B8B4201D38B03C01A5241430B8B4201D34B03DF
:401C8000C01A5241030B8B4201D30B03C01A5241C30A8B4201D3CB02C01A5241830A8B4201D38B02C01A5241430A8B4201D34B02C01A5241030A8B4201D30B02C01A5241ED
:401CC000CDD2C3098B4201D3CB01C01A524183098B4201D38B01C01A524143098B4201D34B01C01A524103098B4201D30B01C01A5241C3088B4201D3CB00C01A524183087E
:401D00008B4201D38B00C01A524143088B4201D34B00C01A5241411A00D20146524110467047FFE701B5002000F006F802BDC0460029F7D076E770477047C0460300821885
:401D4000934202D019700133FAE77047030030B5002A0DD00C7801335D1E013A2C700131002CF5D19A189A4202D01C700133FAE730BD0000F8B5C046F8BC08BC9E46704796
:401D8000F8B5C046F8BC08BC9E4670470300000001000000010000000000000005036000040000000100000000000000010000000604600008000000C8070008B1010010DF
:401DC00073797374656D5F70736F63365F636D30706C75732E630000F4010000140004010A0009050800000063010000000000000000000000000000000000BA00000000F4
:401E000000000000000000000000000000001D1D47656E6572617465645F536F757263655C50536F43365C70646C5C647269766572735C7065726970686572616C5C73795B
:401E400073696E745C63795F737973696E742E630000000047656E6572617465645F536F757263655C50536F43365C70646C5C647269766572735C70657269706865726179
:401E80006C5C6970635C63795F6970635F6472762E68000047656E6572617465645F536F757263655C50536F43365C70646C5C647269766572735C706572697068657261B1
:401EC0006C5C6970635C63795F6970635F6472762E63000047656E6572617465645F536F757263655C50536F43365C70646C5C647269766572735C70657269706865726176
:401F00006C5C6970635C63795F6970635F706970652E630047656E6572617465645F536F757263655C50536F43365C70646C5C647269766572735C706572697068657261D3
:401F40006C5C737973636C6B5C63795F737973636C6B2E630000000047656E6572617465645F536F757263655C50536F43365C70646C5C647269766572735C706572697086
:401F8000686572616C5C737973636C6B5C63795F737973636C6B2E680000000047656E6572617465645F536F757263655C50536F43365C70646C5C647269766572732F707E
:401FC00065726970686572616C2F6970632F63795F6970635F6472762E68000047656E6572617465645F536F757263655C50536F43365C70646C5C647269766572735C70CA
:4020000065726970686572616C5C6770696F5C63795F6770696F2E630000000047656E6572617465645F536F757263655C50536F43365C70646C5C647269766572735C70F9
:4020400065726970686572616C5C6770696F5C63795F6770696F2E680000000047656E6572617465645F536F757263655C50536F43365C70646C5C647269766572735C70B4
:4020800065726970686572616C5C737973706D5C63795F737973706D2E63000047656E6572617465645F536F757263655C50536F43365C70646C5C647269766572735C705F
:4020C00065726970686572616C5C747269676D75785C63795F747269676D75782E63000047656E6572617465645F536F757263655C50536F43365C70646C5C647269766528
:4021000072735C7065726970686572616C5C70726F745C63795F70726F742E63000000000000204000002440000000400000000000002340000030400000314000009F40FD
:40214000000022400000104002020202020202020210101D800017007500FF030602063604102000000000007FC0000000040000000000000019324B647D00804000080B4B
:40218000100000000000FF012002001F00800004FF081018001000140018001C4044484C5000000008100000080000000400000004100000001200000421000000210000CB
:4021C0000016000040114002C41300138013A013200000001C0000000000214000002540000001400000344000002440000031400000324000001F410000234000001140F4
:40220000010101010101010101101010800019005500F0000501053B04101C01010000000FC000000004000001010101011D3A57789600082000101208000000001F00000A
:402240000010000F002000023F06080E00080009000A000B24282C3034000000100000009000000088000000080000008000000004F0000000F00000400200002005A00025
:40228000D00100018001A0012000000010000000000000000000001000000008C0000000B4220010C0000008400500003C060008D80100000048E80100127A0000093D0009
:4022C00000093D0000093D0004000000A00F00000000D007E9000010C10000100000000010B50004400B27D0144B1A68146AB023D15ACA00531AE3181B68002BF4DA3E2288
:402300000F4B1A600F4A104B1A60104B0621A322D20099500E4A98509B58084B1A68106AB023D15ACA00531AC31800225A60084B064AD358002BFADA10BDC046100800086B
:40234000040126401E1F000008012640000026401C05000010B54378FF2B20D100F042FA04000F4B1A683123D35C042B04D8C421FF310C4800F00EFA094B1A68116AB02305
:40238000D35A9B00CB18DB685A68116801230B4313601368DB07FCD4200000F003FA10BD100800089C1F0010F0B585B001900291544B1A683123D35C002B04D1C421FF3166
:4023C000514800F0E7F94F4B1B681E6AB4229A58971950229B5C002B77D000F0D3F9050003283CD1474B1A683123D35C062B04D8C421FF31444800F0CDF9424B1968B023A7
:40240000CB5A5A00D21853000A6A94466344B4228A58D3181B68002B23DB002000F0CAF93A4B98421FD03A4B1A6900230021012000F0C8F9002803D0364C17E0013400E0D4
:402440000024002000F0B6F9304B984202D0324B9C42F3D9304B9C4207D92E4C06E0002404E02C4C02E02B4C00E00024002C46D100F0B8F90390294B294AD358002B13DA14
:40248000234A0121300000F0A5F900280ED10298FFF726FF019B002B0AD03B68002BFCDB00F060F9040004E01A4C02E0194C00E01C4C032D05D10121002000F05BF90028F3
:4024C000F9D1039800F06EF919E000F08BF905000F4A0121300000F07DF9002809D1019B002B08D03B68002BFCDB00F03BF9040002E0084C00E00B4C280000F053F920003E
:4025000005B0F0BD100800089C1F001001018800F807000805005200EF4902001C0500000000264001005000F0B54F464646C0B4824B1A685468B0235B055B78002B04D00A
:40254000B0235B055B78DBB200E02123212B67D1B023D15ACB005B1A116A8C46634419680029F5DADD6802212943D960B023D15ACB005B1A116A8C466344D968C9073ED512
:40258000D9680904090C8C4684271168D559A84641440968090A0904FF26360431400D0088261168894691598846C14449460968090A0906294365462943D9601168D3597D
:4025C000C9180A685E4B98461A4090252D012A430A605A4B99461A6813689C46925962441368414619400B002B4313604B461A681568D15969180B689359EB181B684F4BF8
:402600001A68B021555AEB005B1B156AAC46634400255D60156A515ACA00531AEB185B68484A116904230B431361012801D030BF00E020BF414B1A68B023D15ACB005B1A2D
:40264000116A8C46634419680029F3DAB02149054978002904D0B02149054978C9B200E02121212932D1D968C90722D510688421525880180468324A1440DB681B0C1B021E
:40268000FF2109020B40234303602C4B19688823C8580B689C46604403681A400D6AB023CC5AE1000B1BEB18DB681B0E1B021A430260224B1A68106AB023D15ACA00531AFA
:4026C000C318DA6802218A43DA6028E086235B00E358002B23D11C4807681C4BA321C9005E581B4A904615681A4A0260062058503E21424611600631174A9950164B134ACD
:40270000D358002BFADA154A86235B00E2500E4B1F60A323DB000D4AD6500D4B1D60074B1A68106AB023D15ACA00531AC31800225A600CBC90469946F0BDC0461008000885
:40274000FF00FFFF00ED00E00801264000002640040126401E1F00001C050000AAAAAAAA0000000001B40248844601BC604700BF2D13001001B40248844601BC604700BF21
:40278000210B001001B40248844601BC604700BF3504001001B40248844601BC604700BF4519001001B40248844601BC604700BFCB1A001001B40248844601BC604700BF81
:4027C000AD0B001001B40248844601BC604700BF910D001001B40248844601BC604700BF9509001001B40248844601BC604700BFC31A001000000000000000000000000004
:020000041008E2
:4000000000780408EB0208100D00000051030810510308105103081051030810000000000000000000000000000000004D0308104D030810000000004D0308104D030810DA
:400040004D0308104D0308104D0308104D0308104D0308104D0308104D0308104D0308104D0308104D0308104D0308104D0308104D0308104D0308104D0308104D03081000
:400080004D0308104D0308104D0308104D0308104D0308104D0308104D0308104D0308104D0308104D0308104D0308104D0308104D0308104D0308104D0308104D030810C0
:4000C0004D0308104D0308104D0308104D0308104D0308104D0308104D0308104D0308104D0308104D0308104D0308104D0308104D0308104D0308104D0308104D03081080
:400100004D0308104D0308104D0308104D0308104D0308104D0308104D0308104D0308104D0308104D0308104D0308104D0308104D0308104D0308104D0308104D0308103F
:400140004D0308104D0308104D0308104D0308104D0308104D0308104D0308104D0308104D0308104D0308104D0308104D0308104D0308104D0308104D0308104D030810FF
:400180004D0308104D0308104D0308104D0308104D0308104D0308104D0308104D0308104D0308104D0308104D0308104D0308104D0308104D0308104D0308104D030810BF
:4001C0004D0308104D0308104D0308104D0308104D0308104D0308104D0308104D0308104D0308104D0308104D0308104D0308104D0308104D0308104D0308104D0308107F
:400200004D0308104D0308104D0308104D0308104D0308104D0308104D0308104D0308104D0308104D0308104D0308104D0308104D0308104D0308104D0308104D0308103E
:400240004D0308104D0308104D0308104D0308104D0308104D0308104D0308104D0308104D0308104D0308104D0308104D0308104D0308104D0308104D0308104D030810FE
:400280004D0308104D0308104D03081010B5054C237833B9044B13B10448AFF300800123237010BD744A020800000000C41C0810084B10B51BB108490848AFF300800848AD
:4002C000036803B910BD074B002BFBD0BDE81040184700BF00000000784A0208C41C081044440208000000007047FFF7FDFF72B6104C114DAC4209DA21686268A368043B60
:40030000A2BFC858D050FAE70C34F3E70B490C4A00209142BCBF41F8040BFAE709480A490860BFF34F8F00F023F900F0FDF800F01DF8FEE7C81C0810E01C0810744A020891
:400340009C4C02080040020808ED00E0FEE7FEE700B504207146084202D0EFF3098001E0EFF30880043000F04FFDFEE708B562B601F048FA0249034801F018FAFEE700BFA6
:40038000040114418C42020808B5012000F048FC08BD00BF704700BF5C4AD2F8803303F00F0303F1D00152F8212002F00702032A04D0042A05D092B9554914E0554A116893
:4003C00011E003F1C002514951F8222002F01F02112A06D0132A04D04FF4FA4103E04E4901E04FF400418BBB484BD3F8902502F00100D3F88825C2F30172D3F8883513F028
:40040000405F07D0414BD3F88835C3F30173012B02D102E0012300E0002303B108B9032A46D13A48D0F88025C2F31103D0F88425C2F30C02D0F88005C0F300600130B1FB1E
:40044000F2F202FB03F2B2FBF0F131E0012B2FD12E4BD3F8402602F00100D3F80026C2F30172D3F8003613F0405F07D0274BD3F80036C3F30173012B02D102E0012300E029
:40048000002303B108B9032A12D12048D0F8002602F07F02D0F80036C3F30423D0F80006C0F3044002FB01F2B2FBF3F2B2FBF0F1164BD3F88033C3F3011321FA03F2154904
:4004C0004A601648D0F89030C3F3072301330069000E0130B2FBF0F08860B2FBF3F3CB600B6103F5742202F23F220D48A0FB0202C2F387420A7503F2E7330A4AA2FB032317
:400500009B098B61DB03CB61704700BF0000264000127A001C44020800366E010000214083DE1B43D34D621008B50D4801F016F9FFF730FFFFF730FF00221146042000F00F
:4005400037F9084800F0CAF9074B1B6893F8513013B1064800F032FA00F03CFC08BD00BF6C1B0810904A0208984C02088418081008B500F0A6FC074AD2F8883043F470039C
:40058000C2F88830BFF34F8FBFF36F8F00F09DFC08BD00BF00ED00E038B50D4B9A680D4B9A420FD10D46044621B940F237110A4800F01AFC04F11003064A52F8230042F80C
:4005C000235038BD1030054B53F8200038BD00BF00ED00E000400208B81808100000081048B338B504460D464368072B03D93221134800F0F9FBB4F900306268002B08DB48
:400600005201D2B203F1604303F5614383F8002305E003F00F035201D2B20A49CA540A4B9A680A4B9A4208D12946B4F90000FFF7B3FF002038BD06487047002038BD00BFCD
:40064000B818081014ED00E000ED00E0004002080100560038B50B4B1B68D3F8B4301B58002B0DDA0D4604460B0C1B0423B140F2D521054800F0B8FBA9B26160002038BD59
:40068000024838BD984C0208FC18081001008A0038B50368002B01DA002300E0094B73B90D460446C2600B0C1B0423B140F2BB21054800F099FBA9B2A160002038BD014813
:4006C00038BD00BF01008A00FC18081038B504460D4619B99921084800F086FB074B1B68D3F8B4301B59002B03DAE3682B60002038BD034838BD00BF3C190810984C020873
:4007000001008A00254B1B6893F8313083423AD900293AD00B6813F01F0F38D170B50D4604461E4B1B6893F83130984204D340F2C3111B4800F058FB184B1B68186AB3F88D
:40074000B03004FB0304174E34602A68D2080021686801F06FF800212046FFF77BFF346825B940F293310E4800F03EFB2A4600212046FFF78DFF60B900210A4B1868FFF781
:4007800069FF40B970BD084870470748704706487047064870BD054870BD00BF984C0208FC180810104C020803018A0001018A0010B504461346B2B9A9B9124B1B6893F8AB
:4007C0003130984204D340F2C3110F4800F00CFB0C4B1B681A6AB3F8B03004FB03240B4B1C60002010BD43B149B1084A51609360111D2046FFF786FF10BD054810BD04489F
:4008000010BD00BF984C0208FC180810104C020803018A002DE9F0411B4B1B68DC68236883422CD90D464609A0EB4610012303FA00F819B900F045FB074600E00027124B06
:4008400018680368002B01DA002300E00F4B83B9626852F8263018EA030F05D023EA080342F82630002400E0094C0021FFF7F2FE00E0084C25B9384600F027FB00E0064CBF
:400880002046BDE8F08100BF104C020801008A00020188000301880004018A000B4B1B68DB681A6882420CD94109A0EB4110012202FA00F05B6853F82130184203D0044812
:4008C0007047044870470448704700BF104C02080101880004018A0000018800024B1B680BB9014B186070471C4C02082DE9F8430446884691461D46089F2C4B1B681BB9DB
:40090000B5212B4800F070FA284B1B682C2000FB04F01C18EEB21E50C5F3072363602D0CA560244B1B6893F831309E4204D340F2C311214800F058FA1E4B1B68196AB3F85E
:40094000B02006FB02162661666893F832309E4204D340F2DF11184800F046FA154B1B681D6A803605EB46156561A668330C1B0423B14FF4FF71104800F036FA330C1B04E9
:4009800023B140F2FF110C4800F02EFAB3B243EA0646AE60C4F81C90C4F820800023A36117B1B7F90030A381BDE8F8831C4C02087C190810984C0208FC180810F0B58FB0D5
:4009C000044618B95221274800F00EFAA369072B03D95621234800F007FAE36A1BB95821204800F001FA236B1BB959211D4800F0FBF907AD04F114060FCE0FC537682F6061
:400A000002AD26460FCE0FC533682B60164B1B68B3F93620079B1344ADF83030089B0D93A26AE16A0CAD00953B460A98FFF75EFF00210091069B0A460598FFF757FF216B6A
:400A40002846FFF7CDFDBDF93030002B08DB590903F01F03012202FA03F3044A42F821300FB0F0BD7C190810984C020800E100E0F8B506460F461D4614461AB9FD211F4894
:400A800000F0B2F91E4B1B681BB9FE211B4800F0ABF91B4B1B682C2101FB063001FB07314B68012202FA03F31B04466802FA06F60269EAB18F69EFB91268002A01DA002255
:400AC00000E0104AC2B92288134323600369DC6001238B614D620469330C1B0423B140F2BB21094800F080F9B2B2A2600020F8BD0648F8BD0648F8BD0548F8BD7C19081000
:400B00001C4C020801008A00FC18081004028A0007028A00F8B505460F4616460E4B1B6823B94FF4AF710D4800F05EF90A4B1B682C2404FB0534236A23B94FF4B17107488C
:400B400000F052F9E369B34204D9236A43F826700020F8BD0248F8BD1C4C02087C1908100A028A0070B582B000230193044620B940F2D111284800F037F9236923B94FF4B5
:400B8000E971254800F030F9636923B940F2D311214800F029F9236A23B94FF4EA711E4800F022F96369DD682A0C20D012041A601B682069194B1B68D3F8B430C358002BF5
:400BC00015DA01A9FFF782FD60B9019803681E0CDBB2E269934206D2226A52F8233013B1984700E0002631462069FFF733FDADB275B16369ADB21D601B68636A1BB19847FB
:400C00000023636202E0A36A03B198470023A36163691B6802B070BD7C190810984C020810B50446074B1B6823B940F2B111064800F0DAF8034B1B682C2000FB0430FFF754
:400C400091FF10BD1C4C02087C1908101F4B98422DD00CD840282ED003D8E8B1102828D02FE0802829D0B0F5807F28D029E0184B984228D006D8B0F1204F0DD0154B98423A
:400C800012D01EE0144B98420AD00133984209D0023B984215D101E0002070470F4870470F4870470F4870474FF4A0007047074870470D4870470D4870470D48704703486C
:400CC00070470C4870474FF4A400704706005200010000F0090000A0040000F0010052000200520003005200010050000200500005005200FF00520038B5124B1B6893F80F
:400D00003130012B04D840F2C3110F4800F06CF80C4B1D682A6AB5F8B03013442C46D5F8B420D358002B0BDB084B1868FFF78EFF6B6801229A6063689B68002BFBD138BDF6
:400D4000034838BD984C0208BC190810204C0208020050001A4B186128B102230370FF23437000234380174B1B6893F850202AB300B583B0B3F93830ADF800300023019341
:400D800011496846FFF72CFCBDF90030002B08DB590903F01F03012202FA03F30B4A42F82130084B1B6893F8513023B1022208490120FFF7AFFE03B05DF804FB704700BF41
:400DC000204C0208984C0208B544020800E100E06D45020808B50248FFF7BCFF08BD00BF344C020801BEFEE738B50D46044C18220146204600F026FDA5610020FFF7F2FF0E
:400E0000E0490208FEE700BF08B50268254BDA6142681A6282685A62C2689A620269DA6242691A6382695A63C2699A631E4A916AD963D16A1964516A5964516B9964926BF3
:400E4000DA64F1EE103A13F0900F27D0026A154B1A65426A5A65826A9A65C26ADA65026B1A66426B5A66826B9A66C26BDA66026C1A67426C5A67826C9A67C26CDA67026D87
:400E8000C3F88020426DC3F88420826DC3F88820C26DC3F88C20026EC3F89020FFF7B2FF08BD00BFE049020800ED00E0000000000230800803D001300238FCD100BF00BF98
:400EC0007047EFF3108072B6704780F310887047002800F0E081F0B5032840F0D980032921D809B9072A0AD9012901D10F2A06D9022901D1032A02D9032914D19AB9BA4BD9
:400F00001D68AE6895F8710001FA00F7032404FA00F307EA030095F870301340034343F08043C6F80034B04B1B6893F83F0037281ED903291CD809B9072A0AD9012901D1DC
:400F40000F2A06D9022901D1032A02D903290FD172B99D6893F8710001FA00F6032404FA00F0304093F8703013400343C5F8DC3C012922D871B9072A56D89B4B186884680E
:400F8000B0F87430234453F8220020F47F4043F8220049E0012947D10F2A45D8924B1B689868B3F87630184450F8223023F47F0323F47F4340F8223036E002291BD1032A23
:400FC00032D8894C23689868B3F87830184450F8223023F47F0323F47F4340F8223020688468B0F87830234453F8220020F0F80043F8220018E0032916D1AAB97A4C206889
:401000008568B0F87A302B4453F82200C0B243F8220020688468B0F87A30234453F8220020F0F80043F82200032900F2338109B9072A0DD9012901D10F2A09D9022901D108
:40104000032A05D9032940F02581002A40F02281654B1D68AC6895F87360032000FA06F795F8703095F8726003FA06F63E4395F87170B940B840014031431A4041EA0203FF
:4010800043F00043C4F80034AB68D3F80034F0BD032921D809B9072A0AD9012901D10F2A06D9022901D1032A02D9032914D19AB94D480668B76896F8714001FA04FE03250D
:4010C00005FA04F00EEA000496F870001040204340F08040C7F800044348006890F83F40372C1ED903291CD809B9072A0AD9012901D10F2A06D9022901D1032A02D903290E
:401100000FD172B9866890F8714001FA04F7032505FA04F43C4090F8700010402043C6F8DC0C012932D8A9B9072A00F28480FF2B00F281802C480468A568B4F87400284448
:4011400050F8224024F47F441B029BB2234340F8223070E001296ED10F2A6CD8B3F5803F69D2214800688468B0F87600044454F8220020F47F0020F47F401B0223F07F43CF
:4011800023F0FF03034344F8223054E002292DD1032A50D8B3F5803F4DD205981F284AD8114D28688468B0F87800044454F8220020F47F0020F47F401B0223F07F4323F0ED
:4011C000FF03034344F822302B689868B3F87830184450F8223023F0F804059BDB00DBB2234340F8223026E0984C0208032922D10ABBB3F1807F1ED205981F281BD8264D81
:4012000028688468B0F87A00044454F82200C0B240EA032344F822302B689868B3F87A30184450F8223023F0F804059BDB00DBB2234340F8223003292CD809B9072A0AD91F
:40124000012901D10F2A06D9022901D1032A02D903291FD1F2B9104B1D68A86895F87360032404FA06F795F8703095F8726003FA06F63E4395F87170B940BC4021403143DE
:401280001A4041EA020343F00043C0F80034AB68D3F80034F0BD7047984C020870B582B00C46054618B949215448FFF79DFD1CB94A215248FFF798FD002D00F09A80002CBB
:4012C00000F099802378012B03D958214B48FFF78BFD636833B1B3F1807F03D059214748FFF782FD237A042B03D95A214348FFF77BFD638963B1B3F5807F09D0B3F5007F52
:4013000006D0B3F5407F03D05B213C48FFF76CFDE3687BB1B3F5800F0CD0B3F5400F09D0B3F1006F06D0B3F1086F03D05C213348FFF75AFD237C012B03D95D212F48FFF736
:4013400053FD636933B1B3F1804F03D05E212B48FFF74AFDA3693F2B03D95F212748FFF743FDA36903F03F0263891343217A8A1ED2B2022A01D843F08053042901D143F0FB
:4013800000536268134362691A43E66816432378012B02D10023012201E001230022217C012902D142F4807201E043F4807394F82410A9620121A962C5F8B020C5F8B430F1
:4013C000E369C3F30B03C5F80031236AC3F30B03C5F8043194F8253043B1E36AA26A94F82610207A246B0094FFF772FD2E60002002E0034800E0024802B070BDFC19081089
:4014000001006600002800F0248138B50546002900F021810C460B78032B03D957219148FFF7E2FC6378032B03D958218D48FFF7DBFCA378032B03D959218A48FFF7D4FC5A
:401440002379032B03D95A218648FFF7CDFCA379012B03D95B218348FFF7C6FCE379012B03D95C217F48FFF7BFFCE378012B03D95D217C48FFF7B8FC6379022B03D95E218F
:401480007848FFF7B1FC237A032B03D95F217548FFF7AAFC237803F003016278930003F00C030B43A278120102F03002134322799201D2B21343A279920602F0806213436E
:4014C000E279D20602F000621343E278120602F0807213436279120702F040521343227A43EA82732B60E3686B602369AB60237A032B00F2B280DFE803F002063388E36AE6
:40150000EB60002038BD636903F50063B3F5805F03D378215348FFF767FCA36903F50063B3F5805F03D379214E48FFF75DFCE369013BFF2B03D97A214A48FFF755FC636929
:40154000C3F30B02A369484901EA03331A43E369013B42EA0363EB60E36A2B61002038BD636903F50063B3F5805F03D387213D48FFF73AFCA36903F50063B3F5805F03D399
:4015800088213848FFF730FCE369013BFF2B03D989213448FFF728FC236A03F50063B3F5805F03D38A212F48FFF71EFC636A03F50063B3F5805F03D38B212A48FFF714FCF2
:4015C000A36A013BFF2B03D98C212648FFF70CFC6269C2F30B01A269234B03EA02320A43E169013942EA0162EA60226AC2F30B02616A03EA01331343A26A013A43EA02634A
:401600002B61E36A6B61002038BD184B1B6893F82A30012B23D9636903F50063B3F5805F03D3A1210F48FFF7DFFBE369013BFF2B03D9A2210B48FFF7D7FB6369C3F30B0394
:40164000E269013A43EA0263EB60E36A2B61002038BD07487047064838BD054838BD044838BD00BF3C1A081000F0FF00984C020801004E00002860D0F8B50346002A5ED04E
:40168000106800285DD03148006890F83300884259D91E4614460D469368032B03D9EF212B48FFF7A1FB2768284B1B6893F833309D4204D340F2E1512648FFF795FB234BAB
:4016C0001A68B2F85A309919B2F85C3005FB0313DF60B2F85A10B2F85C30314405FB03118B681B0C1B048B60B2F85A301E44B2F85C1005FB01F123792BB192F85F7001236D
:4017000003FA07F700E00027A06892F85E50A8400322AA4000EA02033B43227B12B14FF0004200E000221343627B0AB1042200E00022134373500020F8BD074870470648C8
:40174000F8BD0548F8BD0448F8BD00BF984C02083C1A0810781A081001004E00014B1860704700BF984C020810B584B00C4C0D492046FFF747FE009400218DF804100323B9
:4017800002938DF80C108DF80D10074C6A462046FFF770FF236843F00043236004B010BD744C0208241C08100000284038B505460C46114B1B7E23B9FFF7D6FF01220E4B52
:4017C0001A760D4B5D609C600C4B1B6893F8333023B940F2FA510A48FFF706FB074B1B68B3F85A3003F1804303F520131A6842F000421A6038BD00BF744C0208984C020816
:40180000541C081008B5084B1B7833B907490848FFF744FD0122044B1A70054A136843F00043136008BD00BF904C0208901C08100000144102440346934202D003F8011B3B
:40184000FAE7704710B5034642B111F8014B03F8014B013A002CF7D11A4400E010BD934202D003F8014BFAE710BD0000F8B500BFF8BC08BC9E467047F8B500BFF8BC08BCFA
:401880009E4670470300000001000000010000000000000005036000040000000100000000000000010000000604600008000000F04B02088903081047656E657261746594
:4018C000645F536F757263655C50536F43365C70646C5C647269766572735C7065726970686572616C5C737973696E745C63795F737973696E742E630000000047656E65F7
:4019000072617465645F536F757263655C50536F43365C70646C5C647269766572735C7065726970686572616C5C6970635C63795F6970635F6472762E68000047656E6536
:4019400072617465645F536F757263655C50536F43365C70646C5C647269766572735C7065726970686572616C5C6970635C63795F6970635F6472762E63000047656E65FB
:4019800072617465645F536F757263655C50536F43365C70646C5C647269766572735C7065726970686572616C5C6970635C63795F6970635F706970652E630047656E6559
:4019C00072617465645F536F757263655C50536F43365C70646C5C647269766572732F7065726970686572616C2F6970632F63795F6970635F6472762E68000047656E65FD
:401A000072617465645F536F757263655C50536F43365C70646C5C647269766572735C7065726970686572616C5C63746461635C63795F63746461632E63000047656E655F
:401A400072617465645F536F757263655C50536F43365C70646C5C647269766572735C7065726970686572616C5C646D615C63795F646D612E63000047656E65726174650D
:401A8000645F536F757263655C50536F43365C70646C5C647269766572735C7065726970686572616C5C646D615C63795F646D612E6800000000204000002440000000409B
:401AC0000000000000002340000030400000314000009F40000022400000104002020202020202020210101D800017007500FF030602063604102000000000007FC00000FD
:401B000000040000000000000019324B647D00804000080B100000000000FF012002001F00800004FF081018001000140018001C4044484C50000000081000000800000073
:401B400004000000041000000012000004210000002100000016000040114002C41300138013A013200000001C000000000021400000254000000140000034400000244001
:401B8000000031400000324000001F410000234000001140010101010101010101101010800019005500F0000501053B04101C01010000000FC000000004000001010101C8
:401BC000011D3A57789600082000101208000000001F00000010000F002000023F06080E00080009000A000B24282C303400000010000000900000008800000008000000E9
:401C00008000000004F0000000F00000400200002005A000D00100018001A00120000000100000000000000000020000010000000000000000000000010000000000000011
:401C400064000000010000000100000001000000744C020847656E6572617465645F536F757263655C50536F43365C70646C5C647269766572732F70657269706865726107
:401C80006C2F646D612F63795F646D612E680000010000000000000001000001000040000100000000000000220000000000000000000000010000000000000000000000BE
:401CC000000000000000000000000810004002088C020000E81C08108C42020854070000744A020828020000FF07000080080000000900007F090000FC090000780A00000D
:401D0000F10A0000670B0000D90B0000480C0000B20C0000180D0000790D0000D40D0000290E0000770E0000C00E0000010F00003C0F00006F0F00009A0F0000BE0F0000DB
:401D4000DA0F0000EE0F0000FA0F0000FF0F0000FA0F0000EE0F0000DA0F0000BE0F00009A0F00006F0F00003C0F0000010F0000C00E0000770E0000290E0000D40D0000BD
:401D8000790D0000180D0000B20C0000480C0000D90B0000670B0000F10A0000780A0000FC0900007F0900000009000080080000FF0700007E070000FE0600007F06000061
:401DC00002060000860500000D0500009704000025040000B60300004C030000E6020000850200002A020000D5010000870100003E010000FD000000C20000008F000000EC
:401E000064000000400000002400000010000000040000000000000004000000100000002400000040000000640000008F000000C2000000FD0000003E01000087010000D5
:401E4000D50100002A02000085020000E60200004C030000B603000025040000970400000D05000086050000020600007F060000FE0600007E0700000048E80100127A00B5
:401E800000093D0000127A0000127A0008000000401F00000000A00FB10208108D0208100000000080B2C10050B3164B1B681A6AB3F8B030C3EBC303D358002BF5DA3E225A
:401EC000114B1A6041F61E7204331A60A3F584730622C3F8182521F07F41C3F81C15D3F81C35084B1A68116AB2F8B030C3EBC3030B4400225A60054BD3F81C35002BFADA28
:401F0000704700BF984C02080401264000002640F8B5274B1B6893F83130052B04D840F2C311244800F062FA214F3A68166AB2F8B03003EB83031E4452684FF26003D45898
:401F4000A4B200F05BFA05463B681968D3F890208A58013C032C27D8032A0CD1164A127812F0FF0F07D10822B2601968D3F890208A58032AF9D01968D3F884208B588858F0
:401F8000C0F307221B0E581C02FB00000B4B03FB00F00B4B1B680B4AA2FB03239B09B0FBF3F08230FFF77EFF284600F017FAF8BD984C0208BC1908100B00001640420F006E
:401FC00020440208D34D62104378FF2B23D110B500F014FA0446104B1B6893F83130042B04D840F2C3110D4800F000FA0A4B1A68136AB2F8B02003EB8203DB685A68136820
:4020000043F001031360136813F0010FFBD1204600F0E4F910BD7047984C0208BC1908102DE9F04707468846554B1B6893F83130012B04D840F2C311524800F0D7F9504B90
:402040001B681C6AB3F8B0201444D3F8B420161993F85030002B79D04B4B1B7813F0FF0F02D04FF0000901E04FF00109B9F1000F38D0434B1B6893F83130052B04D840F2BD
:40208000C311404800F0B2F93D4B1A68116AB2F8B03003EB83030B44D2F8B420D358002B22DB002000F0C2F9384B98421ED00023374A12690121184600F080F918B1354DFD
:4020C00017E0013500E00025002000F0AFF92F4B984202D0304B9D42F3D92F4B9D4207D92C4D06E0002504E02A4D02E0294D00E00025002D41D100F081F98246274BD3F887
:402100001C35002B10DA224A0121204600F07EF960B94046FFF7C6FE57B13368002BFCDB00F054F9054604E01A4D02E0194D00E01B4DB9F1000F05D00121002000F06EF956
:402140000028F9D1504600F049F916E000F056F980460F4A0121204600F058F938B947B13368002BFCDB00F031F9054602E0094D00E00B4D404600F031F92846BDE8F08703
:40218000984C0208BC1908100B00001601018800204C020805005200EF4902000000264001005000F0B47F4B1A6855684FF0B0535B7813F0FF0F04D04FF0B0535B78DBB292
:4021C00000E02123212B55D1116AB2F8B030C3EBC303CC18CB58002BF6DAE36843F00103E360146AB2F8B030C3EBC3031C44E36813F0020F2DD0E3689EB21368D2F884105D
:402200005958090A090401F47F01D2F88870DB591B0A41EA03633343E3601168D2F884208B5823F47F4343F410638B505D4A13681C68D3F88810635823F47F4343F4106384
:40224000635013681A68D3F884105158D3F88830D358544B1A68116AB2F8B030C3EBC3030B4400215960116AB2F8B030C3EBC3030B445B684B4B19680C68D1F894301C4432
:40228000494A136943F004031361012801D030BF07E020BF454B1B7803B120BF0122434B1A70236803F00303022BE9D00A6AB1F8B030C3EBC303D018D358002BF6DA4FF099
:4022C000B0535B7813F0FF0F04D04FF0B0535B78DBB200E02123212B30D1C36813F0020F1FD00C68D1F88410635823F47F42C3681B0C1B0203F47F4313436350294B196858
:402300000C68D1F88800235823F47F420D6AB1F8B030C3EBC3032B44DB681B0E42EA03232350204B1A68136AB2F8B020C2EBC2021344DA6822F00102DA6026E0D5F80C3124
:402340001BBB1B490E681B4BD3F818451A4A106841F61E770F600621C3F818153E2111604422C3F81C25134BD3F81C35002BFADA4FF0AA33C5F80C310D4B1E60A3F58473D3
:40238000C3F8184503F582731860064B1A68116AB2F8B030C3EBC3030B4400225A60F0BC704700BF984C020800ED00E0384C020808012640000026400401264001B402487F
:4023C000844601BC604700BF710A081001B40248844601BC604700BFF90C081001B40248844601BC604700BFCB0E081001B40248844601BC604700BFE90D081001B402487E
:40240000844601BC604700BFC30E081001B40248844601BC604700BF9106081001B40248844601BC604700BF1508081001B40248844601BC604700BF9D0808100000000061
:40244000000000000000000000000000000000000000000000000000000000000000000000000000000000000000000000000000000000000000000000000000000000005C
:40248000000000000000000000000000000000000000000000000000000000000000000000000000000000000000000000000000000000000000000000000000000000001C
:4024C00000000000000000000000000000000000000000000000000000000000000000000000000000000000000000000000000000000000000000000000000000000000DC
:40250000000000000000000000000000000000000000000000000000000000000000000000000000000000000000000000000000000000000000000000000000000000009B
:40254000000000000000000000000000000000000000000000000000000000000000000000000000000000000000000000000000000000000000000000000000000000005B
:40258000000000000000000000000000000000000000000000000000000000000000000000000000000000000000000000000000000000000000000000000000000000001B
:4025C00000000000000000000000000000000000000000000000000000000000000000000000000000000000000000000000000000000000000000000000000000000000DB
:0200000490303A
:020000009F0C53
:0200000490501A
:0C0000000005E20721002101E21FC00CF6
:00000001FF