:020000041008E2
:4000000000780408EB0208100D00000051030810510308105103081051030810000000000000000000000000000000004D0308104D030810000000004D0308104D030810DA
:400040004D0308104D0308104D0308104D0308104D0308104D0308104D0308104D0308104D0308104D0308104D0308104D0308104D0308104D0308104D0308104D03081000
:400080004D0308104D0308104D0308104D0308104D0308104D0308104D0308104D0308104D0308104D0308104D0308104D0308104D0308104D0308104D0308104D030810C0
:4000C0004D0308104D0308104D0308104D0308104D0308104D0308104D0308104D0308104D0308104D0308104D0308104D0308104D0308104D0308104D0308104D03081080
:400100004D0308104D0308104D0308104D0308104D0308104D0308104D0308104D0308104D0308104D0308104D0308104D0308104D0308104D0308104D0308104D0308103F
:400140004D0308104D0308104D0308104D0308104D0308104D0308104D0308104D0308104D0308104D0308104D0308104D0308104D0308104D0308104D0308104D030810FF
:400180004D0308104D0308104D0308104D0308104D0308104D0308104D0308104D0308104D0308104D0308104D0308104D0308104D0308104D0308104D0308104D030810BF
:4001C0004D0308104D0308104D0308104D0308104D0308104D0308104D0308104D0308104D0308104D0308104D0308104D0308104D0308104D0308104D0308104D0308107F
:400200004D0308104D0308104D0308104D0308104D0308104D0308104D0308104D0308104D0308104D0308104D0308104D0308104D0308104D0308104D0308104D0308103E
:400240004D0308104D0308104D0308104D0308104D0308104D0308104D0308104D0308104D0308104D0308104D0308104D0308104D0308104D0308104D0308104D030810FE
:400280004D0308104D0308104D03081010B5054C237833B9044B13B10448AFF300800123237010BD744A020800000000C41C0810084B10B51BB108490848AFF300800848AD
:4002C000036803B910BD074B002BFBD0BDE81040184700BF00000000784A0208C41C081044440208000000007047FFF7FDFF72B6104C114DAC4209DA21686268A368043B60
:40030000A2BFC858D050FAE70C34F3E70B490C4A00209142BCBF41F8040BFAE709480A490860BFF34F8F00F023F900F0FDF800F01DF8FEE7C81C0810E01C0810744A020891
:400340009C4C02080040020808ED00E0FEE7FEE700B504207146084202D0EFF3098001E0EFF30880043000F04FFDFEE708B562B601F048FA0249034801F018FAFEE700BFA6
:40038000040114418C42020808B5012000F048FC08BD00BF704700BF5C4AD2F8803303F00F0303F1D00152F8212002F00702032A04D0042A05D092B9554914E0554A116893
:4003C00011E003F1C002514951F8222002F01F02112A06D0132A04D04FF4FA4103E04E4901E04FF400418BBB484BD3F8902502F00100D3F88825C2F30172D3F8883513F028
:40040000405F07D0414BD3F88835C3F30173012B02D102E0012300E0002303B108B9032A46D13A48D0F88025C2F31103D0F88425C2F30C02D0F88005C0F300600130B1FB1E
:40044000F2F202FB03F2B2FBF0F131E0012B2FD12E4BD3F8402602F00100D3F80026C2F30172D3F8003613F0405F07D0274BD3F80036C3F30173012B02D102E0012300E029
:40048000002303B108B9032A12D12048D0F8002602F07F02D0F80036C3F30423D0F80006C0F3044002FB01F2B2FBF3F2B2FBF0F1164BD3F88033C3F3011321FA03F2154904
:4004C0004A601648D0F89030C3F3072301330069000E0130B2FBF0F08860B2FBF3F3CB600B6103F5742202F23F220D48A0FB0202C2F387420A7503F2E7330A4AA2FB032317
:400500009B098B61DB03CB61704700BF0000264000127A001C44020800366E010000214083DE1B43D34D621008B50D4801F016F9FFF730FFFFF730FF00221146042000F00F
:4005400037F9084800F0CAF9074B1B6893F8513013B1064800F032FA00F03CFC08BD00BF6C1B0810904A0208984C02088418081008B500F0A6FC074AD2F8883043F470039C
:40058000C2F88830BFF34F8FBFF36F8F00F09DFC08BD00BF00ED00E038B50D4B9A680D4B9A420FD10D46044621B940F237110A4800F01AFC04F11003064A52F8230042F80C
:4005C000235038BD1030054B53F8200038BD00BF00ED00E000400208B81808100000081048B338B504460D464368072B03D93221134800F0F9FBB4F900306268002B08DB48
:400600005201D2B203F1604303F5614383F8002305E003F00F035201D2B20A49CA540A4B9A680A4B9A4208D12946B4F90000FFF7B3FF002038BD06487047002038BD00BFCD
:40064000B818081014ED00E000ED00E0004002080100560038B50B4B1B68D3F8B4301B58002B0DDA0D4604460B0C1B0423B140F2D521054800F0B8FBA9B26160002038BD59
:40068000024838BD984C0208FC18081001008A0038B50368002B01DA002300E0094B73B90D460446C2600B0C1B0423B140F2BB21054800F099FBA9B2A160002038BD014813
:4006C00038BD00BF01008A00FC18081038B504460D4619B99921084800F086FB074B1B68D3F8B4301B59002B03DAE3682B60002038BD034838BD00BF3C190810984C020873
:4007000001008A00254B1B6893F8313083423AD900293AD00B6813F01F0F38D170B50D4604461E4B1B6893F83130984204D340F2C3111B4800F058FB184B1B68186AB3F88D
:40074000B03004FB0304174E34602A68D2080021686801F06FF800212046FFF77BFF346825B940F293310E4800F03EFB2A4600212046FFF78DFF60B900210A4B1868FFF781
:4007800069FF40B970BD084870470748704706487047064870BD054870BD00BF984C0208FC180810104C020803018A0001018A0010B504461346B2B9A9B9124B1B6893F8AB
:4007C0003130984204D340F2C3110F4800F00CFB0C4B1B681A6AB3F8B03004FB03240B4B1C60002010BD43B149B1084A51609360111D2046FFF786FF10BD054810BD04489F
:4008000010BD00BF984C0208FC180810104C020803018A002DE9F0411B4B1B68DC68236883422CD90D464609A0EB4610012303FA00F819B900F045FB074600E00027124B06
:4008400018680368002B01DA002300E00F4B83B9626852F8263018EA030F05D023EA080342F82630002400E0094C0021FFF7F2FE00E0084C25B9384600F027FB00E0064CBF
:400880002046BDE8F08100BF104C020801008A00020188000301880004018A000B4B1B68DB681A6882420CD94109A0EB4110012202FA00F05B6853F82130184203D0044812
:4008C0007047044870470448704700BF104C02080101880004018A0000018800024B1B680BB9014B186070471C4C02082DE9F8430446884691461D46089F2C4B1B681BB9DB
:40090000B5212B4800F070FA284B1B682C2000FB04F01C18EEB21E50C5F3072363602D0CA560244B1B6893F831309E4204D340F2C311214800F058FA1E4B1B68196AB3F85E
:40094000B02006FB02162661666893F832309E4204D340F2DF11184800F046FA154B1B681D6A803605EB46156561A668330C1B0423B14FF4FF71104800F036FA330C1B04E9
:4009800023B140F2FF110C4800F02EFAB3B243EA0646AE60C4F81C90C4F820800023A36117B1B7F90030A381BDE8F8831C4C02087C190810984C0208FC180810F0B58FB0D5
:4009C000044618B95221274800F00EFAA369072B03D95621234800F007FAE36A1BB95821204800F001FA236B1BB959211D4800F0FBF907AD04F114060FCE0FC537682F6061
:400A000002AD26460FCE0FC533682B60164B1B68B3F93620079B1344ADF83030089B0D93A26AE16A0CAD00953B460A98FFF75EFF00210091069B0A460598FFF757FF216B6A
:400A40002846FFF7CDFDBDF93030002B08DB590903F01F03012202FA03F3044A42F821300FB0F0BD7C190810984C020800E100E0F8B506460F461D4614461AB9FD211F4894
:400A800000F0B2F91E4B1B681BB9FE211B4800F0ABF91B4B1B682C2101FB063001FB07314B68012202FA03F31B04466802FA06F60269EAB18F69EFB91268002A01DA002255
:400AC00000E0104AC2B92288134323600369DC6001238B614D620469330C1B0423B140F2BB21094800F080F9B2B2A2600020F8BD0648F8BD0648F8BD0548F8BD7C19081000
:400B00001C4C020801008A00FC18081004028A0007028A00F8B505460F4616460E4B1B6823B94FF4AF710D4800F05EF90A4B1B682C2404FB0534236A23B94FF4B17107488C
:400B400000F052F9E369B34204D9236A43F826700020F8BD0248F8BD1C4C02087C1908100A028A0070B582B000230193044620B940F2D111284800F037F9236923B94FF4B5
:400B8000E971254800F030F9636923B940F2D311214800F029F9236A23B94FF4EA711E4800F022F96369DD682A0C20D012041A601B682069194B1B68D3F8B430C358002BF5
:400BC00015DA01A9FFF782FD60B9019803681E0CDBB2E269934206D2226A52F8233013B1984700E0002631462069FFF733FDADB275B16369ADB21D601B68636A1BB19847FB
:400C00000023636202E0A36A03B198470023A36163691B6802B070BD7C190810984C020810B50446074B1B6823B940F2B111064800F0DAF8034B1B682C2000FB0430FFF754
:400C400091FF10BD1C4C02087C1908101F4B98422DD00CD840282ED003D8E8B1102828D02FE0802829D0B0F5807F28D029E0184B984228D006D8B0F1204F0DD0154B98423A
:400C800012D01EE0144B98420AD00133984209D0023B984215D101E0002070470F4870470F4870470F4870474FF4A0007047074870470D4870470D4870470D48704703486C
:400CC00070470C4870474FF4A400704706005200010000F0090000A0040000F0010052000200520003005200010050000200500005005200FF00520038B5124B1B6893F80F
:400D00003130012B04D840F2C3110F4800F06CF80C4B1D682A6AB5F8B03013442C46D5F8B420D358002B0BDB084B1868FFF78EFF6B6801229A6063689B68002BFBD138BDF6
:400D4000034838BD984C0208BC190810204C0208020050001A4B186128B102230370FF23437000234380174B1B6893F850202AB300B583B0B3F93830ADF800300023019341
:400D800011496846FFF72CFCBDF90030002B08DB590903F01F03012202FA03F30B4A42F82130084B1B6893F8513023B1022208490120FFF7AFFE03B05DF804FB704700BF41
:400DC000204C0208984C0208B544020800E100E06D45020808B50248FFF7BCFF08BD00BF344C020801BEFEE738B50D46044C18220146204600F026FDA5610020FFF7F2FF0E
:400E0000E0490208FEE700BF08B50268254BDA6142681A6282685A62C2689A620269DA6242691A6382695A63C2699A631E4A916AD963D16A1964516A5964516B9964926BF3
:400E4000DA64F1EE103A13F0900F27D0026A154B1A65426A5A65826A9A65C26ADA65026B1A66426B5A66826B9A66C26BDA66026C1A67426C5A67826C9A67C26CDA67026D87
:400E8000C3F88020426DC3F88420826DC3F88820C26DC3F88C20026EC3F89020FFF7B2FF08BD00BFE049020800ED00E0000000000230800803D001300238FCD100BF00BF98
:400EC0007047EFF3108072B6704780F310887047002800F0E081F0B5032840F0D980032921D809B9072A0AD9012901D10F2A06D9022901D1032A02D9032914D19AB9BA4BD9
:400F00001D68AE6895F8710001FA00F7032404FA00F307EA030095F870301340034343F08043C6F80034B04B1B6893F83F0037281ED903291CD809B9072A0AD9012901D1DC
:400F40000F2A06D9022901D1032A02D903290FD172B99D6893F8710001FA00F6032404FA00F0304093F8703013400343C5F8DC3C012922D871B9072A56D89B4B186884680E
:400F8000B0F87430234453F8220020F47F4043F8220049E0012947D10F2A45D8924B1B689868B3F87630184450F8223023F47F0323F47F4340F8223036E002291BD1032A23
:400FC00032D8894C23689868B3F87830184450F8223023F47F0323F47F4340F8223020688468B0F87830234453F8220020F0F80043F8220018E0032916D1AAB97A4C206889
:401000008568B0F87A302B4453F82200C0B243F8220020688468B0F87A30234453F8220020F0F80043F82200032900F2338109B9072A0DD9012901D10F2A09D9022901D108
:40104000032A05D9032940F02581002A40F02281654B1D68AC6895F87360032000FA06F795F8703095F8726003FA06F63E4395F87170B940B840014031431A4041EA0203FF
:4010800043F00043C4F80034AB68D3F80034F0BD032921D809B9072A0AD9012901D10F2A06D9022901D1032A02D9032914D19AB94D480668B76896F8714001FA04FE03250D
:4010C00005FA04F00EEA000496F870001040204340F08040C7F800044348006890F83F40372C1ED903291CD809B9072A0AD9012901D10F2A06D9022901D1032A02D903290E
:401100000FD172B9866890F8714001FA04F7032505FA04F43C4090F8700010402043C6F8DC0C012932D8A9B9072A00F28480FF2B00F281802C480468A568B4F87400284448
:4011400050F8224024F47F441B029BB2234340F8223070E001296ED10F2A6CD8B3F5803F69D2214800688468B0F87600044454F8220020F47F0020F47F401B0223F07F43CF
:4011800023F0FF03034344F8223054E002292DD1032A50D8B3F5803F4DD205981F284AD8114D28688468B0F87800044454F8220020F47F0020F47F401B0223F07F4323F0ED
:4011C000FF03034344F822302B689868B3F87830184450F8223023F0F804059BDB00DBB2234340F8223026E0984C0208032922D10ABBB3F1807F1ED205981F281BD8264D81
:4012000028688468B0F87A00044454F82200C0B240EA032344F822302B689868B3F87A30184450F8223023F0F804059BDB00DBB2234340F8223003292CD809B9072A0AD91F
:40124000012901D10F2A06D9022901D1032A02D903291FD1F2B9104B1D68A86895F87360032404FA06F795F8703095F8726003FA06F63E4395F87170B940BC4021403143DE
:401280001A4041EA020343F00043C0F80034AB68D3F80034F0BD7047984C020870B582B00C46054618B949215448FFF79DFD1CB94A215248FFF798FD002D00F09A80002CBB
:4012C00000F099802378012B03D958214B48FFF78BFD636833B1B3F1807F03D059214748FFF782FD237A042B03D95A214348FFF77BFD638963B1B3F5807F09D0B3F5007F52
:4013000006D0B3F5407F03D05B213C48FFF76CFDE3687BB1B3F5800F0CD0B3F5400F09D0B3F1006F06D0B3F1086F03D05C213348FFF75AFD237C012B03D95D212F48FFF736
:4013400053FD636933B1B3F1804F03D05E212B48FFF74AFDA3693F2B03D95F212748FFF743FDA36903F03F0263891343217A8A1ED2B2022A01D843F08053042901D143F0FB
:4013800000536268134362691A43E66816432378012B02D10023012201E001230022217C012902D142F4807201E043F4807394F82410A9620121A962C5F8B020C5F8B430F1
:4013C000E369C3F30B03C5F80031236AC3F30B03C5F8043194F8253043B1E36AA26A94F82610207A246B0094FFF772FD2E60002002E0034800E0024802B070BDFC19081089
:4014000001006600002800F0248138B50546002900F021810C460B78032B03D957219148FFF7E2FC6378032B03D958218D48FFF7DBFCA378032B03D959218A48FFF7D4FC5A
:401440002379032B03D95A218648FFF7CDFCA379012B03D95B218348FFF7C6FCE379012B03D95C217F48FFF7BFFCE378012B03D95D217C48FFF7B8FC6379022B03D95E218F
:401480007848FFF7B1FC237A032B03D95F217548FFF7AAFC237803F003016278930003F00C030B43A278120102F03002134322799201D2B21343A279920602F0806213436E
:4014C000E279D20602F000621343E278120602F0807213436279120702F040521343227A43EA82732B60E3686B602369AB60237A032B00F2B280DFE803F002063388E36AE6
:40150000EB60002038BD636903F50063B3F5805F03D378215348FFF767FCA36903F50063B3F5805F03D379214E48FFF75DFCE369013BFF2B03D97A214A48FFF755FC636929
:40154000C3F30B02A369484901EA03331A43E369013B42EA0363EB60E36A2B61002038BD636903F50063B3F5805F03D387213D48FFF73AFCA36903F50063B3F5805F03D399
:4015800088213848FFF730FCE369013BFF2B03D989213448FFF728FC236A03F50063B3F5805F03D38A212F48FFF71EFC636A03F50063B3F5805F03D38B212A48FFF714FCF2
:4015C000A36A013BFF2B03D98C212648FFF70CFC6269C2F30B01A269234B03EA02320A43E169013942EA0162EA60226AC2F30B02616A03EA01331343A26A013A43EA02634A
:401600002B61E36A6B61002038BD184B1B6893F82A30012B23D9636903F50063B3F5805F03D3A1210F48FFF7DFFBE369013BFF2B03D9A2210B48FFF7D7FB6369C3F30B0394
:40164000E269013A43EA0263EB60E36A2B61002038BD07487047064838BD054838BD044838BD00BF3C1A081000F0FF00984C020801004E00002860D0F8B50346002A5ED04E
:40168000106800285DD03148006890F83300884259D91E4614460D469368032B03D9EF212B48FFF7A1FB2768284B1B6893F833309D4204D340F2E1512648FFF795FB234BAB
:4016C0001A68B2F85A309919B2F85C3005FB0313DF60B2F85A10B2F85C30314405FB03118B681B0C1B048B60B2F85A301E44B2F85C1005FB01F123792BB192F85F7001236D
:4017000003FA07F700E00027A06892F85E50A8400322AA4000EA02033B43227B12B14FF0004200E000221343627B0AB1042200E00022134373500020F8BD074870470648C8
:40174000F8BD0548F8BD0448F8BD00BF984C02083C1A0810781A081001004E00014B1860704700BF984C020810B584B00C4C0D492046FFF747FE009400218DF804100323B9
:4017800002938DF80C108DF80D10074C6A462046FFF770FF236843F00043236004B010BD744C0208241C08100000284038B505460C46114B1B7E23B9FFF7D6FF01220E4B52
:4017C0001A760D4B5D609C600C4B1B6893F8333023B940F2FA510A48FFF706FB074B1B68B3F85A3003F1804303F520131A6842F000421A6038BD00BF744C0208984C020816
:40180000541C081008B5084B1B7833B907490848FFF744FD0122044B1A70054A136843F00043136008BD00BF904C0208901C08100000144102440346934202D003F8011B3B
:40184000FAE7704710B5034642B111F8014B03F8014B013A002CF7D11A4400E010BD934202D003F8014BFAE710BD0000F8B500BFF8BC08BC9E467047F8B500BFF8BC08BCFA
:401880009E4670470300000001000000010000000000000005036000040000000100000000000000010000000604600008000000F04B02088903081047656E657261746594
:4018C000645F536F757263655C50536F43365C70646C5C647269766572735C7065726970686572616C5C737973696E745C63795F737973696E742E630000000047656E65F7
:4019000072617465645F536F757263655C50536F43365C70646C5C647269766572735C7065726970686572616C5C6970635C63795F6970635F6472762E68000047656E6536
:4019400072617465645F536F757263655C50536F43365C70646C5C647269766572735C7065726970686572616C5C6970635C63795F6970635F6472762E63000047656E65FB
:4019800072617465645F536F757263655C50536F43365C70646C5C647269766572735C7065726970686572616C5C6970635C63795F6970635F706970652E630047656E6559
:4019C00072617465645F536F757263655C50536F43365C70646C5C647269766572732F7065726970686572616C2F6970632F63795F6970635F6472762E68000047656E65FD
:401A000072617465645F536F757263655C50536F43365C70646C5C647269766572735C7065726970686572616C5C63746461635C63795F63746461632E63000047656E655F
:401A400072617465645F536F757263655C50536F43365C70646C5C647269766572735C7065726970686572616C5C646D615C63795F646D612E63000047656E65726174650D
:401A8000645F536F757263655C50536F43365C70646C5C647269766572735C7065726970686572616C5C646D615C63795F646D612E6800000000204000002440000000409B
:401AC0000000000000002340000030400000314000009F40000022400000104002020202020202020210101D800017007500FF030602063604102000000000007FC00000FD
:401B000000040000000000000019324B647D00804000080B100000000000FF012002001F00800004FF081018001000140018001C4044484C50000000081000000800000073
:401B400004000000041000000012000004210000002100000016000040114002C41300138013A013200000001C000000000021400000254000000140000034400000244001
:401B8000000031400000324000001F410000234000001140010101010101010101101010800019005500F0000501053B04101C01010000000FC000000004000001010101C8
:401BC000011D3A57789600082000101208000000001F00000010000F002000023F06080E00080009000A000B24282C303400000010000000900000008800000008000000E9
:401C00008000000004F0000000F00000400200002005A000D00100018001A00120000000100000000000000000020000010000000000000000000000010000000000000011
:401C400064000000010000000100000001000000744C020847656E6572617465645F536F757263655C50536F43365C70646C5C647269766572732F70657269706865726107
:401C80006C2F646D612F63795F646D612E680000010000000000000001000001000040000100000000000000220000000000000000000000010000000000000000000000BE
:401CC000000000000000000000000810004002088C020000E81C08108C42020854070000744A020828020000FF07000080080000000900007F090000FC090000780A00000D
:401D0000F10A0000670B0000D90B0000480C0000B20C0000180D0000790D0000D40D0000290E0000770E0000C00E0000010F00003C0F00006F0F00009A0F0000BE0F0000DB
:401D4000DA0F0000EE0F0000FA0F0000FF0F0000FA0F0000EE0F0000DA0F0000BE0F00009A0F00006F0F00003C0F0000010F0000C00E0000770E0000290E0000D40D0000BD
:401D8000790D0000180D0000B20C0000480C0000D90B0000670B0000F10A0000780A0000FC0900007F0900000009000080080000FF0700007E070000FE0600007F06000061
:401DC00002060000860500000D0500009704000025040000B60300004C030000E6020000850200002A020000D5010000870100003E010000FD000000C20000008F000000EC
:401E000064000000400000002400000010000000040000000000000004000000100000002400000040000000640000008F000000C2000000FD0000003E01000087010000D5
:401E4000D50100002A02000085020000E60200004C030000B603000025040000970400000D05000086050000020600007F060000FE0600007E0700000048E80100127A00B5
:401E800000093D0000127A0000127A0008000000401F00000000A00FB10208108D0208100000000080B2C10050B3164B1B681A6AB3F8B030C3EBC303D358002BF5DA3E225A
:401EC000114B1A6041F61E7204331A60A3F584730622C3F8182521F07F41C3F81C15D3F81C35084B1A68116AB2F8B030C3EBC3030B4400225A60054BD3F81C35002BFADA28
:401F0000704700BF984C02080401264000002640F8B5274B1B6893F83130052B04D840F2C311244800F062FA214F3A68166AB2F8B03003EB83031E4452684FF26003D45898
:401F4000A4B200F05BFA05463B681968D3F890208A58013C032C27D8032A0CD1164A127812F0FF0F07D10822B2601968D3F890208A58032AF9D01968D3F884208B588858F0
:401F8000C0F307221B0E581C02FB00000B4B03FB00F00B4B1B680B4AA2FB03239B09B0FBF3F08230FFF77EFF284600F017FAF8BD984C0208BC1908100B00001640420F006E
:401FC00020440208D34D62104378FF2B23D110B500F014FA0446104B1B6893F83130042B04D840F2C3110D4800F000FA0A4B1A68136AB2F8B02003EB8203DB685A68136820
:4020000043F001031360136813F0010FFBD1204600F0E4F910BD7047984C0208BC1908102DE9F04707468846554B1B6893F83130012B04D840F2C311524800F0D7F9504B90
:402040001B681C6AB3F8B0201444D3F8B420161993F85030002B79D04B4B1B7813F0FF0F02D04FF0000901E04FF00109B9F1000F38D0434B1B6893F83130052B04D840F2BD
:40208000C311404800F0B2F93D4B1A68116AB2F8B03003EB83030B44D2F8B420D358002B22DB002000F0C2F9384B98421ED00023374A12690121184600F080F918B1354DFD
:4020C00017E0013500E00025002000F0AFF92F4B984202D0304B9D42F3D92F4B9D4207D92C4D06E0002504E02A4D02E0294D00E00025002D41D100F081F98246274BD3F887
:402100001C35002B10DA224A0121204600F07EF960B94046FFF7C6FE57B13368002BFCDB00F054F9054604E01A4D02E0194D00E01B4DB9F1000F05D00121002000F06EF956
:402140000028F9D1504600F049F916E000F056F980460F4A0121204600F058F938B947B13368002BFCDB00F031F9054602E0094D00E00B4D404600F031F92846BDE8F08703
:40218000984C0208BC1908100B00001601018800204C020805005200EF4902000000264001005000F0B47F4B1A6855684FF0B0535B7813F0FF0F04D04FF0B0535B78DBB292
:4021C00000E02123212B55D1116AB2F8B030C3EBC303CC18CB58002BF6DAE36843F00103E360146AB2F8B030C3EBC3031C44E36813F0020F2DD0E3689EB21368D2F884105D
:402200005958090A090401F47F01D2F88870DB591B0A41EA03633343E3601168D2F884208B5823F47F4343F410638B505D4A13681C68D3F88810635823F47F4343F4106384
:40224000635013681A68D3F884105158D3F88830D358544B1A68116AB2F8B030C3EBC3030B4400215960116AB2F8B030C3EBC3030B445B684B4B19680C68D1F894301C4432
:40228000494A136943F004031361012801D030BF07E020BF454B1B7803B120BF0122434B1A70236803F00303022BE9D00A6AB1F8B030C3EBC303D018D358002BF6DA4FF099
:4022C000B0535B7813F0FF0F04D04FF0B0535B78DBB200E02123212B30D1C36813F0020F1FD00C68D1F88410635823F47F42C3681B0C1B0203F47F4313436350294B196858
:402300000C68D1F88800235823F47F420D6AB1F8B030C3EBC3032B44DB681B0E42EA03232350204B1A68136AB2F8B020C2EBC2021344DA6822F00102DA6026E0D5F80C3124
:402340001BBB1B490E681B4BD3F818451A4A106841F61E770F600621C3F818153E2111604422C3F81C25134BD3F81C35002BFADA4FF0AA33C5F80C310D4B1E60A3F58473D3
:40238000C3F8184503F582731860064B1A68116AB2F8B030C3EBC3030B4400225A60F0BC704700BF984C020800ED00E0384C020808012640000026400401264001B402487F
:4023C000844601BC604700BF710A081001B40248844601BC604700BFF90C081001B40248844601BC604700BFCB0E081001B40248844601BC604700BFE90D081001B402487E
:40240000844601BC604700BFC30E081001B40248844601BC604700BF9106081001B40248844601BC604700BF1508081001B40248844601BC604700BF9D0808100000000061
:40244000000000000000000000000000000000000000000000000000000000000000000000000000000000000000000000000000000000000000000000000000000000005C
:40248000000000000000000000000000000000000000000000000000000000000000000000000000000000000000000000000000000000000000000000000000000000001C
:4024C00000000000000000000000000000000000000000000000000000000000000000000000000000000000000000000000000000000000000000000000000000000000DC
:40250000000000000000000000000000000000000000000000000000000000000000000000000000000000000000000000000000000000000000000000000000000000009B
:40254000000000000000000000000000000000000000000000000000000000000000000000000000000000000000000000000000000000000000000000000000000000005B
:40258000000000000000000000000000000000000000000000000000000000000000000000000000000000000000000000000000000000000000000000000000000000001B
:4025C00000000000000000000000000000000000000000000000000000000000000000000000000000000000000000000000000000000000000000000000000000000000DB
:0200000490303A
:0200000020E2FC
:0200000490501A
:0C0000000005E20721002101E21341E2AB
:00000001FF