:020000041008E2
:4000000000780408EB0208100D00000051030810510308105103081051030810000000000000000000000000000000004D0308104D030810000000004D0308104D030810DA
:400040004D0308104D0308104D0308104D0308104D0308104D0308104D0308104D0308104D0308104D0308104D0308104D0308104D0308104D0308104D0308104D03081000
:400080004D0308104D0308104D0308104D0308104D0308104D0308104D0308104D0308104D0308104D0308104D0308104D0308104D0308104D0308104D0308104D030810C0
:4000C0004D0308104D0308104D0308104D0308104D0308104D0308104D0308104D0308104D0308104D0308104D0308104D0308104D0308104D0308104D0308104D03081080
:400100004D0308104D0308104D0308104D0308104D0308104D0308104D0308104D0308104D0308104D0308104D0308104D0308104D0308104D0308104D0308104D0308103F
:400140004D0308104D0308104D0308104D0308104D0308104D0308104D0308104D0308104D0308104D0308104D0308104D0308104D0308104D0308104D0308104D030810FF
:400180004D0308104D0308104D0308104D0308104D0308104D0308104D0308104D0308104D0308104D0308104D0308104D0308104D0308104D0308104D0308104D030810BF
:4001C0004D0308104D0308104D0308104D0308104D0308104D0308104D0308104D0308104D0308104D0308104D0308104D0308104D0308104D0308104D0308104D0308107F
:400200004D0308104D0308104D0308104D0308104D0308104D0308104D0308104D0308104D0308104D0308104D0308104D0308104D0308104D0308104D0308104D0308103E
:400240004D0308104D0308104D0308104D0308104D0308104D0308104D0308104D0308104D0308104D0308104D0308104D0308104D0308104D0308104D0308104D030810FE
:400280004D0308104D0308104D03081010B5054C237833B9044B13B10448AFF300800123237010BDE448020800000000C8190810084B10B51BB108490848AFF3008008483E
:4002C000036803B910BD074B002BFBD0BDE81040184700BF00000000E8480208C8190810B4420208000000007047FFF7FDFF72B6104C114DAC4209DA21686268A368043B83
:40030000A2BFC858D050FAE70C34F3E70B490C4A00209142BCBF41F8040BFAE709480A490860BFF34F8F00F0ADF900F087F900F079F8FEE7CC190810E4190810E4480208B0
:40034000244B02080040020808ED00E0FEE7FEE700B504207146084202D0EFF3098001E0EFF30880043000F0D9FDFEE70C4B0122C3F83021D3F830310A4BB3F90030002BCC
:4003800009DB5A0903F01F03012101FA03F36032054941F822300122044B1A70704700BF00003840B415081000E100E00049020810B5054C054A0649204600F0B1FE236840
:4003C00043F00043236010BD00006640EC4A02088819081010B50E4C0E4A0021204600F0FFFD0123A360A3610B4C0C49204600F081F9B4F90030002B08DB590903F01F03A5
:40040000012202FA03F3064A42F8213010BD00BF000038403C190810B41508106D03081000E100E008B5FFF7C3FF62B6134C1449204600F05DFE1349204600F059FE1249D3
:40044000204600F055FE1149204600F051FE0B4BD3F840330D2BFAD1FFF7BCFF0C49074800F046FE0B4B1B78002BFBD00022094B1A700222084BDA60F4E700BF00006640E4
:40048000E0140810EC1408100C1508102415081054150810004902088000324008B5012000F048FC08BD00BF704700BF5C4AD2F8803303F00F0303F1D00152F8212002F052
:4004C0000702032A04D0042A05D092B9554914E0554A116811E003F1C002514951F8222002F01F02112A06D0132A04D04FF4FA4103E04E4901E04FF400418BBB484BD3F8F8
:40050000902502F00100D3F88825C2F30172D3F8883513F0405F07D0414BD3F88835C3F30173012B02D102E0012300E0002303B108B9032A46D13A48D0F88025C2F31103BB
:40054000D0F88425C2F30C02D0F88005C0F300600130B1FBF2F202FB03F2B2FBF0F131E0012B2FD12E4BD3F8402602F00100D3F80026C2F30172D3F8003613F0405F07D039
:40058000274BD3F80036C3F30173012B02D102E0012300E0002303B108B9032A12D12048D0F8002602F07F02D0F80036C3F30423D0F80006C0F3044002FB01F2B2FBF3F226
:4005C000B2FBF0F1164BD3F88033C3F3011321FA03F215494A601648D0F89030C3F3072301330069000E0130B2FBF0F08860B2FBF3F3CB600B6103F5742202F23F220D4833
:40060000A0FB0202C2F387420A7503F2E7330A4AA2FB03239B098B61DB03CB61704700BF0000264000127A008C42020800366E010000214083DE1B43D34D621008B50D48B5
:4006400000F020FFFFF730FFFFF730FF00221146042000F037F9084800F0CAF9074B1B6893F8513013B1064800F032FA00F03CFC08BD00BF8418081004490208E84A02085F
:400680008015081008B500F0A4FC074AD2F8883043F47003C2F88830BFF34F8FBFF36F8F00F09BFC08BD00BF00ED00E038B50D4B9A680D4B9A420FD10D46044621B940F235
:4006C00037110A4800F01AFC04F11003064A52F8230042F8235038BD1030054B53F8200038BD00BF00ED00E000400208C41508100000081048B338B504460D464368072BC2
:4007000003D93221134800F0F9FBB4F900306268002B08DB5201D2B203F1604303F5614383F8002305E003F00F035201D2B20A49CA540A4B9A680A4B9A4208D12946B4F93F
:400740000000FFF7B3FF002038BD06487047002038BD00BFC415081014ED00E000ED00E0004002080100560038B50B4B1B68D3F8B4301B58002B0DDA0D4604460B0C1B04D6
:4007800023B140F2D521054800F0B8FBA9B26160002038BD024838BDE84A02080816081001008A0038B50368002B01DA002300E0094B73B90D460446C2600B0C1B0423B136
:4007C00040F2BB21054800F099FBA9B2A160002038BD014838BD00BF01008A000816081038B504460D4619B99921084800F086FB074B1B68D3F8B4301B59002B03DAE368C9
:400800002B60002038BD034838BD00BF48160810E84A020801008A00254B1B6893F8313083423AD900293AD00B6813F01F0F38D170B50D4604461E4B1B6893F831309842D1
:4008400004D340F2C3111B4800F058FB184B1B68186AB3F8B03004FB0304174E34602A68D2080021686800F013FE00212046FFF77BFF346825B940F293310E4800F03EFBBF
:400880002A4600212046FFF78DFF60B900210A4B1868FFF769FF40B970BD084870470748704706487047064870BD054870BD00BFE84A020808160810844A020803018A008E
:4008C00001018A0010B504461346B2B9A9B9124B1B6893F83130984204D340F2C3110F4800F00CFB0C4B1B681A6AB3F8B03004FB03240B4B1C60002010BD43B149B1084A58
:4009000051609360111D2046FFF786FF10BD054810BD044810BD00BFE84A020808160810844A020803018A002DE9F0411B4B1B68DC68236883422CD90D464609A0EB461021
:40094000012303FA00F819B900F043FB074600E00027124B18680368002B01DA002300E00F4B83B9626852F8263018EA030F05D023EA080342F82630002400E0094C0021AE
:40098000FFF7F2FE00E0084C25B9384600F025FB00E0064C2046BDE8F08100BF844A020801008A00020188000301880004018A000B4B1B68DB681A6882420CD94109A0EB1F
:4009C0004110012202FA00F05B6853F82130184203D004487047044870470448704700BF844A02080101880004018A0000018800024B1B680BB9014B18607047904A0208D6
:400A00002DE9F8430446884691461D46089F2C4B1B681BB9B5212B4800F070FA284B1B682C2000FB04F01C18EEB21E50C5F3072363602D0CA560244B1B6893F831309E42E7
:400A400004D340F2C311214800F058FA1E4B1B68196AB3F8B02006FB02162661666893F832309E4204D340F2DF11184800F046FA154B1B681D6A803605EB46156561A66801
:400A8000330C1B0423B14FF4FF71104800F036FA330C1B0423B140F2FF110C4800F02EFAB3B243EA0646AE60C4F81C90C4F820800023A36117B1B7F90030A381BDE8F88336
:400AC000904A020888160810E84A020808160810F0B58FB0044618B95221274800F00EFAA369072B03D95621234800F007FAE36A1BB95821204800F001FA236B1BB959215B
:400B00001D4800F0FBF907AD04F114060FCE0FC537682F6002AD26460FCE0FC533682B60164B1B68B3F93620079B1344ADF83030089B0D93A26AE16A0CAD00953B460A98E9
:400B4000FFF75EFF00210091069B0A460598FFF757FF216B2846FFF7CDFDBDF93030002B08DB590903F01F03012202FA03F3044A42F821300FB0F0BD88160810E84A0208F5
:400B800000E100E0F8B506460F461D4614461AB9FD211F4800F0B2F91E4B1B681BB9FE211B4800F0ABF91B4B1B682C2101FB063001FB07314B68012202FA03F31B0446686F
:400BC00002FA06F60269EAB18F69EFB91268002A01DA002200E0104AC2B92288134323600369DC6001238B614D620469330C1B0423B140F2BB21094800F080F9B2B2A2604A
:400C00000020F8BD0648F8BD0648F8BD0548F8BD88160810904A020801008A000816081004028A0007028A00F8B505460F4616460E4B1B6823B94FF4AF710D4800F05EF9F9
:400C40000A4B1B682C2404FB0534236A23B94FF4B171074800F052F9E369B34204D9236A43F826700020F8BD0248F8BD904A0208881608100A028A0070B582B0002301932E
:400C8000044620B940F2D111284800F037F9236923B94FF4E971254800F030F9636923B940F2D311214800F029F9236A23B94FF4EA711E4800F022F96369DD682A0C20D0FA
:400CC00012041A601B682069194B1B68D3F8B430C358002B15DA01A9FFF782FD60B9019803681E0CDBB2E269934206D2226A52F8233013B1984700E0002631462069FFF7DA
:400D000033FDADB275B16369ADB21D601B68636A1BB198470023636202E0A36A03B198470023A36163691B6802B070BD88160810E84A020810B50446074B1B6823B940F2B8
:400D4000B111064800F0DAF8034B1B682C2000FB0430FFF791FF10BD904A0208881608101F4B98422DD00CD840282ED003D8E8B1102828D02FE0802829D0B0F5807F28D0ED
:400D800029E0184B984228D006D8B0F1204F0DD0154B984212D01EE0144B98420AD00133984209D0023B984215D101E0002070470F4870470F4870470F4870474FF4A00054
:400DC0007047074870470D4870470D4870470D487047034870470C4870474FF4A400704706005200010000F0090000A0040000F00100520002005200030052000100500034
:400E00000200500005005200FF00520038B5124B1B6893F83130012B04D840F2C3110F4800F06CF80C4B1D682A6AB5F8B03013442C46D5F8B420D358002B0BDB084B1868D0
:400E4000FFF78EFF6B6801229A6063689B68002BFBD138BD034838BDE84A0208C8160810944A0208020050001A4B186128B102230370FF23437000234380174B1B6893F81F
:400E800050202AB300B583B0B3F93830ADF800300023019311496846FFF72CFCBDF90030002B08DB590903F01F03012202FA03F30B4A42F82130084B1B6893F8513023B121
:400EC000022208490120FFF7AFFE03B05DF804FB704700BF944A0208E84A02082543020800E100E0DD43020808B50248FFF7BCFF08BD00BFA84A020801BEFEE738B50D469F
:400F0000044C18220146204600F0CAFAA5610020FFF7F2FF50480208FEE700BF08B50268254BDA6142681A6282685A62C2689A620269DA6242691A6382695A63C2699A6310
:400F40001E4A916AD963D16A1964516A5964516B9964926BDA64F1EE103A13F0900F27D0026A154B1A65426A5A65826A9A65C26ADA65026B1A66426B5A66826B9A66C26B6C
:400F8000DA66026C1A67426C5A67826C9A67C26CDA67026DC3F88020426DC3F88420826DC3F88820C26DC3F88C20026EC3F89020FFF7B2FF08BD00BF5048020800ED00E000
:400FC0000230800803D001300238FCD100BF00BF7047EFF3108072B6704780F31088704700287DD00346002A7CD070B45068000280B29568AD0405F480252843D468240485
:4010000004F4403404431069000600F0E0602043147F0CB1012400E0002420430C1DA4011851D06828B903EB81100024C0F808410CE0012805D1146803EB8110C0F8084134
:4010400004E003EB81100124C0F80841106938B9546903EB8110C0F80C419469C0F81041146803EB8110C0F81441906CB0F1FF3F17D0946A04F00F04166B360206F47066DE
:401080003443956B2D0405F470252543146C2403A4B22C430001C0B2204303EB8114C4F82001506A00F00300D66A360106F030063043556B2D0205F440752843D46BA40141
:4010C000E4B20443506C800000F00C00204303EB8113C3F82401126AC3F83821002003E0024870470148704770BC70470100B60030B4036813F4006F01D0802200E040226E
:40110000002408E0D0F80832C3F308039A42F9D0C0F8405201340D5D002DF3D130BC7047002800F0A48170B50546002900F0A18116460C460B78022B03D93F21A248FFF75C
:40114000DDFE637B023BDBB2062B03D940219E48FFF7D4FEA37B3BB1022B05D0032B03D041219948FFF7CAFE94F82130012B03D942219548FFF7C2FE94F82830012B03D9FB
:4011800043219148FFF7BAFE2378012B06D86368083B082B94BF0023012307E0A37F2BB16368013B062B94BF002301231BB145218548FFF7A3FEA368053B042B03D94621BA
:4011C0008148FFF79BFE6369FF2B03D947217E48FFF794FEA369FF2B03D948217A48FFF78DFEA37C6BB1237833B9A368092B05D1A37B2BB1012304E0012302E0012300E06E
:4012000000231BB14A217048FFF778FE636B23F4366323F00D031BB14C216B48FFF76EFEE36B23F4EE6323F003031BB14D216648FFF764FE2378022B01D1A37F13B16268E8
:40124000013A00E00022237F13B14FF4803100E00021A368082B02D84FF4006300E000230B4302F00F02134343F000732B60226B2B6813F4006F01D0802300E040239A4214
:4012800003D362215048FFF739FEA26B2B6813F4006F01D0802300E040239A4203D363214948FFF72BFE626A2B6813F4006F01D0802300E040239A4203D364214248FFF71A
:4012C0001DFE23781B0603F040732B64637F0BB1402200E00022A37C13B14FF4806300E000231343227C12B14FF4807200E000221343627C12B14FF4007200E000221A43DB
:40130000E36A013B1B0403F470231343627B013A02F007021343A27B120102F030021343AB64237B13B14FF4807200E00022E37B23B92378022B03D1012302E0012300E08A
:40134000002313B14FF4007300E000231A43A368013B03F00F031343C5F80033227DA3691B0403F47F031343C5F81033E26AD5F8003303F00F0303339A4201D3102A03D9F8
:401380007A211148FFF7BAFDE37F23B12378012B03D0002302E0002300E0012313B14FF4807200E00022637B013B03F007031A43A37B1B0103F0300313436B64237B2BB122
:4013C0004FF4807203E000BF8C1708100022A368013B03F00F0313432278012A02D14FF4803200E000221343C5F8003294F83030C5F8043394F8203013B14FF0007200E0B2
:40140000002294F82130012B02D14FF0807300E00023134394F82820012A02D14FF4803200E00022134394F8242013432B6594F83830C5F80432636B23F4926323F0020375
:401440001B051B0DC5F8C83FE36B23F08C035B055B0DC5F8883F76B1002070603060B060F0603062F0623063044B736370BD04487047034870BD002070BD00BFEFCDAB0066
:401480000160AA00014B1860704700BFE84A020802440346934202D003F8011BFAE7704710B5034642B111F8014B03F8014B013A002CF7D11A4400E010BD934202D003F84D
:4014C000014BFAE710BD0000F8B500BFF8BC08BC9E467047F8B500BFF8BC08BC9E4670471B5B324A1B5B3B48000000002A2A2A204578616D706C652050726F6A6563742088
:4015000055415254202A2A2A0D0A0A00202D2D2D204C61625F576F726B5F39202D2D2D0D0A0A0000507265737320456E746572206B657920746F20737461727420626C693C
:401540006E6B696E6720746865204C45440D0A0A000000004F62736572766520746865204C454420626C696E6B696E67206F6E20746865206B69742121210D0A0000000003
:401580000300000001000000010000000000000005036000040000000100000000000000010000000604600008000000644A02089D0408105A000000070000002E00000046
:4015C0000700000047656E6572617465645F536F757263655C50536F43365C70646C5C647269766572735C7065726970686572616C5C737973696E745C63795F73797369BA
:401600006E742E630000000047656E6572617465645F536F757263655C50536F43365C70646C5C647269766572735C7065726970686572616C5C6970635C63795F69706307
:401640005F6472762E68000047656E6572617465645F536F757263655C50536F43365C70646C5C647269766572735C7065726970686572616C5C6970635C63795F697063F9
:401680005F6472762E63000047656E6572617465645F536F757263655C50536F43365C70646C5C647269766572735C7065726970686572616C5C6970635C63795F697063BE
:4016C0005F706970652E630047656E6572617465645F536F757263655C50536F43365C70646C5C647269766572732F7065726970686572616C2F6970632F63795F697063A3
:401700005F6472762E68000047656E6572617465645F536F757263655C50536F43365C70646C5C647269766572735C7065726970686572616C5C7363625C63795F73636240
:401740005F756172742E680047656E6572617465645F536F757263655C50536F43365C70646C5C647269766572735C7065726970686572616C5C7363625C63795F73636290
:401780005F636F6D6D6F6E2E6800000047656E6572617465645F536F757263655C50536F43365C70646C5C647269766572735C7065726970686572616C5C7363625C63791A
:4017C0005F7363625F756172742E63000000204000002440000000400000000000002340000030400000314000009F40000022400000104002020202020202020210101D7E
:40180000800017007500FF030602063604102000000000007FC0000000040000000000000019324B647D00804000080B100000000000FF012002001F00800004FF08101891
:40184000001000140018001C4044484C50000000081000000800000004000000041000000012000004210000002100000016000040114002C41300138013A013200000001F
:401880001C0000000000214000002540000001400000344000002440000031400000324000001F410000234000001140010101010101010101101010800019005500F0001F
:4018C0000501053B04101C01010000000FC000000004000001010101011D3A57789600082000101208000000001F00000010000F002000023F06080E00080009000A000BA9
:4019000024282C3034000000100000009000000088000000080000008000000004F0000000F00000400200002005A000D00100018001A0012000000010000000E803000021
:40194000000000000000000000000000020000000040000000400000000000000100000003000000FFFFFFFF03000000FFFFFFFF03000000FFFFFFFF03000000FFFFFFFFE8
:4019800003000000FFFFFFFF000000000C0000000800000000020000000000000000000000000000000000000000000000000000000000000B000000000000000000000007
:4019C00000000000000000000000000000000810004002088C020000EC1908108C420208C4050000E4480208400200000048E80100127A0000093D0000127A0000127A00A6
:401A000008000000401F00000000A00FB10208108D0208100000000080B2C10050B3164B1B681A6AB3F8B030C3EBC303D358002BF5DA3E22114B1A6041F61E7204331A60EE
:401A4000A3F584730622C3F8182521F07F41C3F81C15D3F81C35084B1A68116AB2F8B030C3EBC3030B4400225A60054BD3F81C35002BFADA704700BFE84A020804012640DD
:401A800000002640F8B5274B1B6893F83130052B04D840F2C311244800F072FA214F3A68166AB2F8B03003EB83031E4452684FF26003D458A4B200F03BFA05463B681968F2
:401AC000D3F890208A58013C032C27D8032A0CD1164A127812F0FF0F07D10822B2601968D3F890208A58032AF9D01968D3F884208B588858C0F307221B0E581C02FB000009
:401B00000B4B03FB00F00B4B1B680B4AA2FB03239B09B0FBF3F08230FFF77EFF284600F037FAF8BDE84A0208C81608100B00001640420F0090420208D34D62104378FF2B9E
:401B400023D110B500F0F4F90446104B1B6893F83130042B04D840F2C3110D4800F010FA0A4B1A68136AB2F8B02003EB8203DB685A68136843F001031360136813F0010F62
:401B8000FBD1204600F004FA10BD7047E84A0208C81608102DE9F04707468846554B1B6893F83130012B04D840F2C311524800F0E7F9504B1B681C6AB3F8B0201444D3F81E
:401BC000B420161993F85030002B79D04B4B1B7813F0FF0F02D04FF0000901E04FF00109B9F1000F38D0434B1B6893F83130052B04D840F2C311404800F0C2F93D4B1A68D8
:401C0000116AB2F8B03003EB83030B44D2F8B420D358002B22DB002000F0C2F9384B98421ED00023374A12690121184600F098F918B1354D17E0013500E00025002000F028
:401C4000AFF92F4B984202D0304B9D42F3D92F4B9D4207D92C4D06E0002504E02A4D02E0294D00E00025002D41D100F061F98246274BD3F81C35002B10DA224A0121204613
:401C800000F05EF960B94046FFF7C6FE57B13368002BFCDB00F05CF9054604E01A4D02E0194D00E01B4DB9F1000F05D00121002000F05EF90028F9D1504600F069F916E08D
:401CC00000F036F980460F4A0121204600F038F938B947B13368002BFCDB00F039F9054602E0094D00E00B4D404600F051F92846BDE8F087E84A0208C81608100B000016FD
:401D000001018800944A020805005200EF4902000000264001005000F0B47F4B1A6855684FF0B0535B7813F0FF0F04D04FF0B0535B78DBB200E02123212B55D1116AB2F8E5
:401D4000B030C3EBC303CC18CB58002BF6DAE36843F00103E360146AB2F8B030C3EBC3031C44E36813F0020F2DD0E3689EB21368D2F884105958090A090401F47F01D2F88C
:401D80008870DB591B0A41EA03633343E3601168D2F884208B5823F47F4343F410638B505D4A13681C68D3F88810635823F47F4343F41063635013681A68D3F88410515861
:401DC000D3F88830D358544B1A68116AB2F8B030C3EBC3030B4400215960116AB2F8B030C3EBC3030B445B684B4B19680C68D1F894301C44494A136943F004031361012889
:401E000001D030BF07E020BF454B1B7803B120BF0122434B1A70236803F00303022BE9D00A6AB1F8B030C3EBC303D018D358002BF6DA4FF0B0535B7813F0FF0F04D04FF009
:401E4000B0535B78DBB200E02123212B30D1C36813F0020F1FD00C68D1F88410635823F47F42C3681B0C1B0203F47F4313436350294B19680C68D1F88800235823F47F42BE
:401E80000D6AB1F8B030C3EBC3032B44DB681B0E42EA03232350204B1A68136AB2F8B020C2EBC2021344DA6822F00102DA6026E0D5F80C311BBB1B490E681B4BD3F8184583
:401EC0001A4A106841F61E770F600621C3F818153E2111604422C3F81C25134BD3F81C35002BFADA4FF0AA33C5F80C310D4B1E60A3F58473C3F8184503F582731860064BC8
:401F00001A68116AB2F8B030C3EBC3030B4400225A60F0BC704700BFE84A020800ED00E0AC4A020808012640000026400401264001B40248844601BC604700BFD30F08102A
:401F400001B40248844601BC604700BFA507081001B40248844601BC604700BF0D0E081001B40248844601BC604700BF850B081001B40248844601BC604700BF29090810C8
:401F800001B40248844601BC604700BFFD0E081001B40248844601BC604700BFDB0F081001B40248844601BC604700BFB10908100000000000000000000000000000000066
:401FC00000000000000000000000000000000000000000000000000000000000000000000000000000000000000000000000000000000000000000000000000000000000E1
:0200000490303A
:0200000078295D
:0200000490501A
:0C0000000005E20721002101E21199290E
:00000001FF